:020000040800F2
:1040000050120020856F0008556D0008576D00089C
:10401000596D00085B6D00085D6D00080000000030
:104020000000000000000000000000005F6D0008BC
:10403000616D000800000000636D0008656D0008F8
:10404000F16F0008F56F0008F96F0008FD6F0008B8
:104050000170000805700008097000080D70000864
:104060001170000815700008197000081D70000814
:104070002170000825700008297000082D700008C4
:104080003170000835700008397000083D70000874
:10409000716E000841700008457000084970000802
:1040A0004D700008517000085570000859700008E4
:1040B0005D700008617000082D6E000865700008D2
:1040C000697000086D700008717000087570000854
:1040D00079700008A76D00087D70000881700008E5
:1040E00085700008897000088D70000891700008C4
:1040F00095700008997000089D700008A170000874
:10410000A5700008A9700008AD700008B170000823
:10411000B5700008B9700008BD700008C1700008D3
:10412000C5700008C9700008CD700008D170000883
:1041300010B501F06DF800F0F1FA0321142000F041
:10414000EFFFDFF87445200000F0C9F800280CD01C
:10415000DFF86805008845F25551884205D1DFF83F
:10416000600500F0BCF800280BD145F25550DFF88F
:104170004C150880200000F0F6F8DFF8440500F048
:10418000F2F80021DFF83C05427DDFF83C050079BC
:1041900082180120DFF83435986110BDDFF8300552
:1041A000017911F00F01052902D14FF4165009E0F1
:1041B000007910F00F000B2802D15FF4E13001E02C
:1041C0004FF4164070472DE9F0410026DFF8004516
:1041D00022000C21002001F078F905002800C0B26F
:1041E00000280ED0002600270A21200001F0A0FAA6
:1041F000618902000B0092B29BB29A4201D0002268
:1042000015002800C0B200282FD10C260027A04698
:104210003A003100404601F0AFFA02202070012040
:104220006080207910F0F00050F0070020712079B4
:1042300010F0EF002071207950F08000207120797B
:1042400050F020002071207910F0BF0020716079BB
:1042500050F001006071607910F001006071012080
:10426000A0710020207200F01FF80020207245F29B
:104270005550DFF860140A8882420AD14A882379AF
:1042800013F00F039BB29A4203D18A8863889A4243
:1042900008D00880207910F00F004880608888805E
:1042A00001F09EFABDE8F08138B50024DFF8205413
:1042B000002068810A21280001F03AFA68812A006A
:1042C0000C21002001F0C8F9C0B232BD4FF460519A
:1042D0004843401C0100481E0029FBD170472DE9CE
:1042E000FE4F0400002000210022002500260027A8
:1042F0000294DFF8C883CDF804805FF000094846D7
:10430000C0B210280AD202984946C9B2405C01994D
:104310004A46D2B2885419F10109F0E70C210198FC
:1043200001F006FA8246D8F80C00ADF800005046BD
:10433000BDF8001080B288420FD010250026C34679
:1043400032002900584601F017FA0120A8F80200AF
:1043500045F25550A8F8000001E0012007003800A0
:10436000C0B2BDE8FE8F2DE9F0470400002500260D
:1043700000275FF00108DFF844A3D1460020CAF807
:104380000C000C21484601F0D3F9CAF80C0001F0EA
:1043900050FA200001F05DFA82465046C0B204286F
:1043A0001CD100200500280080B2092810D25046F8
:1043B000C0B204280CD1280080B239F810102800AF
:1043C00080B214EB400001F06EFA82466D1CEAE701
:1043D000280080B2082801D30120060001F032FA3B
:1043E0003000C0B2BDE8F08710B400200021B74B08
:1043F0001A0001249C61002483F84E40002483F8B5
:104400004D40002483F84C40002483F850400024A1
:104410001C77002483F84F40AF4B002483F84040C2
:10442000002483F84140002483F8424001230C001B
:10443000E4B2144484F84430491C02230C00E4B272
:10444000144484F84430491C04230C00E4B214449E
:1044500084F84430491C4FF4C873136182F84D103E
:104460000223936110BC70472DE9F047040000203F
:104470000125002194F84E20224492F84460964F82
:104480003200D2B2012A04D0022A20D0042A22D03B
:1044900025E0522114F11E0000F01FFA002810D16F
:1044A000012020775FF00E0814F11E0917F1140A9D
:1044B00042464946504601F055FA002084F8510022
:1044C00004E0012084F851000020207709E000205A
:1044D00084F8510005E0002084F8510001E000203C
:1044E00005000120FFF7F2FE2800C0B2BDE8F0870A
:1044F000002190F84E20024492F8442090F8510098
:104500007047010000220020020091F84D30D2B225
:104510009A420AD20200D2B20A4492F84420022AF5
:1045200001D1401C01E0401CEEE7C0B270472DE90C
:10453000F84F04000125002000220021664E94F867
:104540004E30234493F8447094F851803B00DBB222
:10455000012B05D0022B5ED0042B00F08980A5E052
:104560004046C0B2002846D1002086F8420094F8A8
:104570004E00401C84F84E000E22310014F11E0043
:1045800001F044FA00280CD1544800683061012041
:1045900084F8500094F84D0084F84E000120050086
:1045A00038E00E2216F12C0114F11E0001F02EFA53
:1045B00000282FD1002086F83A00F16B20694118BD
:1045C00046480068814213D2002086F83B005FF025
:1045D0000E095FF0000A16F12C0B52464946584668
:1045E00001F0CAF82000FFF78CFF84F84E0011E0BC
:1045F000002005000EE096F84200032805DB0020AD
:1046000086F842000020050004E096F84200401CB5
:1046100086F842004CE04046C0B2002819D1002084
:1046200086F842005FF00E0914F11E0A16F12C0BF9
:104630004A465146584601F095F9002086F83A005E
:10464000012086F83B0025480068F0630020050043
:104650000DE096F84200401C86F8420096F84200B1
:10466000032804DB002086F84200002005001FE03C
:104670004046C0B200280AD1002086F8420094F8D3
:104680004E00401C84F84E00012005000DE096F815
:104690004200401C86F8420096F84200032804DBE2
:1046A000002086F842000020050001E000200500FF
:1046B0002800C0B2BDE8F28F00F80008180E0020F4
:1046C00000F000080050000880500008340D002061
:1046D000280E0020340E0020D00D0020480E0020AF
:1046E00030B4002513E050F8042BD30744BFA9F1E0
:1046F00001039A18091F042942F8045BFAD21346F1
:104700008C0744BF15809B1CC90748BF1D7050F81B
:10471000041B0029E7D130BC7047000080B503219D
:10472000142000F00EFD3D21112000F0C3FC0021FB
:104730002A2000F0BFFCFF212D2000F0BBFCFF2150
:104740002C2000F0B7FC10210B2000F0B3FC00215E
:10475000012000F0AFFC002002BD010000220B7818
:104760004878434088784340C878434008794340BC
:104770001800C0B2002801D1002000E011207047CD
:10478000F8B504000D000026DFF88C727C70012063
:1047900087F841004FF4FA7078640C2038700020DC
:1047A0000090072300220021012000F05DFE00F0B0
:1047B00058FD0100C9B2002908D1B978298029889B
:1047C000090229802A8879780A432A80C0B2F2BD7A
:1047D0002DE9FC4704000D005FF000080027DFF81A
:1047E00038923800C0B2484444707F1C2020390001
:1047F000C9B2494448707F1C89F8417042F2107078
:10480000C9F844000C2089F8000000200090002323
:1048100000220021002000F027FE00F022FD06000B
:104820003000C0B2002811D119F101084046FFF74D
:1048300094FF06003000C0B2002807D15FF00509E0
:10484000AA464A464146504601F08CF83000C0B2B4
:10485000BDE8F6872DE9FE4F04000D001600002785
:104860005FF0000ADFF8B0815046C0B240444470A7
:104870001AF1010A70205146C9B2414448701AF138
:10488000010A5FF0050901955046C0B2404410F19D
:10489000010B4A460199584601F064F81AF1050ADD
:1048A00088F841A042F21070C8F844000C2088F843
:1048B000000000200090002301220121002000F0D0
:1048C000D3FD00F0CEFC0100C9B2002902D198F856
:1048D00001103170C0B2BDE8FE8F2DE9FE43040027
:1048E0000D00002721002800C0B2FFF749FF060095
:1048F0003000C0B2002840F08A802088B0F5406FB8
:1049000000F085802088032800F081800A210022A1
:104910006F46380000F030FF69469320FFF758FFDC
:1049200006003000C0B2002871D114F10D026946B2
:104930009320FFF78FFF06003000C0B2002866D139
:104940000420A0709DF80000882857D103270DF19E
:10495000010814F103093A004146484601F002F803
:1049600069469520FFF734FF06003000C0B20028EA
:104970004DD114F10D0269469520FFF76BFF06003B
:104980003000C0B2002842D10720A0709DF800007E
:10499000882829D103270DF1010814F106093A00EE
:1049A0004146484600F0DEFF69469720FFF710FFBA
:1049B00006003000C0B2002829D114F10D0269466A
:1049C0009720FFF747FF06003000C0B200281ED135
:1049D0000A20A0700427E84614F109093A0041466C
:1049E000484600F0BFFF12E00427E84614F106092C
:1049F0003A004146484600F0B5FF08E00427E84683
:104A000014F103093A004146484600F0ABFF30007C
:0C4A1000C0B2BDE8FE830000880D00204D
:10500000523030303120323530313138303020526A
:105010003030312D5343482D4D422D323530313013
:105020003000000000000000000000000000000050
:0250300000007E
:10508000523030312D5343482D4D422D3235303181
:1050900030300000000000000000000000000000B0
:1050A0000000000000000000000000000000000000
:0250B0000000FE
:1050B40070B504000D00DFF8A06330684169B08862
:1050C400014330684161600010F07F0000F037FD5B
:1050D4002800C0B200F033FD30680169B088014394
:1050E4003068016170BD70B504000025DA4E306887
:1050F4004169B088014330684161600050F080002C
:10510400C0B200F01CFD002000F019FD31680A69EE
:10511400B1880A4331680A61C0B270BDF8B50400B1
:105124000D0000262000C0B2FFF7DDFF07002F436B
:105134003900C9B22000C0B2FFF7BAFFF1BDF8B51B
:1051440004000D0000262000C0B2FFF7CCFF0700CA
:10515400AF433900C9B22000C0B2FFF7A9FFF1BDC7
:105164002DE9F04104000D000027BB4E3068416971
:10517400B088014330684161922000F0E0FC5FF0A8
:1051840000084046C0B22900C9B2491E884208DA64
:10519400922000F0D4FC4146C9B2605418F10108D1
:1051A400EFE7002000F0CBFC4146C9B26054306800
:1051B4000169B088014330680161BDE8F0812DE9DF
:1051C400F04104000D000027A34E30684169B08807
:1051D400014330684161122000F0B1FC5FF0000827
:1051E40040462900C0B2C9B2884207D24046C0B284
:1051F400205C00F0A4FC18F10108F1E730680169B3
:10520400B088014330680161BDE8F08170B50024C5
:105214000025924E30684169B0880143306841618D
:105224004FF4807000F0B8FC30680169B088014325
:10523400306801614FF4007000F0AEFC402115208D
:10524400FFF736FF1520FFF74EFF01000800C0B23C
:10525400402801D1012005002800C0B270BD2DE90D
:10526400F04700255FF0000A00265FF000090027E0
:10527400DFF8EC81002088F84200D8F84440240983
:1052840000210120FFF714FF80210A20FFF710FFFF
:105294007F210420FFF70CFF98F8410041280CDB24
:1052A400402118F10100FFF78AFF19F1400998F82D
:1052B4004100403888F8410010E098F8411018F196
:1052C4000100FFF77CFF98F8410010EB090998F8FA
:1052D400411098F84100091A88F841107F210420F0
:1052E400FFF7E6FE98F8001011F00F010120FFF718
:1052F400DFFE98F800000C2803D180210D20FFF771
:105304000DFF98F84100002834D00420FFF7EBFE8D
:10531400060070072AD598F8410031280EDB3021A9
:105324004846C0B24044401CFFF749FF19F1300918
:1053340098F84100303888F8410012E098F841109C
:105344004846C0B24044401CFFF739FF98F841007A
:1053540010EB090998F8411098F84100091A88F8E7
:10536400411004210420FFF7A3FECAE7B007C8D503
:10537400002004007F210420FFF79AFE002C57D060
:10538400012000F009FC0420FFF7ADFE0600B00781
:1053940005D50C200500002088F8420048E0B0063E
:1053A40011D50A20FFF79FFE07003900C9B298F80B
:1053B40042004044401CFFF7D3FE98F842003818DE
:1053C40088F8420034E070061CD5300715D50A2051
:1053D400FFF789FE07003900C9B298F8420040443B
:1053E400401CFFF7BDFE08210420FFF761FE98F87A
:1053F4004200381888F8420018E098F800000428A1
:1054040014D115E0F00611D50A20FFF76CFE070051
:105414003900C9B298F842004044401CFFF7A0FE8E
:1054240098F84200381888F8420001E0641EA5E7A5
:1054340000210120FFF73CFE98F800000C2803D15E
:1054440080210D20FFF77BFE002C01D103200500F5
:105454002800C0B2BDE8F087A86F0008A06F00085C
:10546400880D00202DE9F04105000E001700984634
:10547400069C2800C0B2002803D008210820FFF7AA
:105484005EFE3000C0B2002804D080211220FFF755
:1054940045FE03E080211220FFF751FE3800C0B220
:1054A400002804D080211320FFF738FE03E0802178
:1054B4001320FFF744FE58EA0411C9B20D20FFF788
:1054C400F7FDBDE8F0812DE9F04104000D00160060
:1054D4005FF001080027280080B2002860D000F0A7
:1054E40079FB002801D1002080464046C0B2002844
:1054F40008D0A02000F003FC00F0E0FB002801D15C
:10550400002080464046C0B2002808D0200080B267
:10551400000AC0B200F0F3FB00F0D0FB8046404626
:10552400C0B2002806D02000C0B200F0E8FB00F0B2
:10553400C5FB80464046C0B2002805D000F04AFBB7
:10554400002801D1002080464046C0B2002808D07F
:10555400A12000F0D4FB00F0B1FB002801D1002011
:1055640080466D1E4046C0B2002817D000200700B8
:105574003800290080B289B2884208D200F0E4FBE6
:10558400390089B2705400F069FB7F1CF0E700F029
:10559400DBFB390089B2705400F078FB00F046FB65
:1055A4004046C0B2BDE8F0812DE9F04104000D0091
:1055B400160000275FF00108280080B2002842D0BE
:1055C40000F008FB002801D1002080464046C0B20C
:1055D400002808D0A02000F092FB00F06FFB002808
:1055E40001D1002080464046C0B2002808D02000E7
:1055F40080B2000AC0B200F082FB00F05FFB80467C
:105604004046C0B2002806D02000C0B200F077FBAC
:1056140000F054FB8046002007003800290080B2C7
:1056240089B288420DD24046C0B2002807D0380063
:1056340080B2305C00F063FB00F040FB80467F1CCE
:10564400EBE700F0F3FA052000F0BBFA4046C0B2E5
:10565400BDE8F0812DE9F04704000D001600002795
:105664005FF000085FF0000A200010F01F0F1BD04D
:1056740014F01F00D0F1200007002800390080B288
:1056840089B2884200D22F00404680B206EB000265
:10569400390089B218EB040080B2FFF785FF814618
:1056A400ED1B17EB080801E05FF001094846C0B2A2
:1056B40000281FD0280080B200281BD0202007001B
:1056C4002800390080B289B2884200D22F004046B7
:1056D40080B206EB0002390089B218EB040080B2F4
:1056E400FFF762FF8146ED1B17EB08084846C0B27E
:1056F4000028DFD14846C0B2BDE8F08730B40EE0E0
:105704000268436802440830DC0744BFA9F101047D
:10571400E31852F8045B43F8045B091FF9D150F80D
:10572400041B0029ECD130BC7047000070B40300A6
:105734000022002400264FF6FF7000258D4214D26B
:105744005A5D504000221600082E0CD2C20706D51E
:1057540080B2020048F2084090EA520001E080B2B0
:105764004008761CF0E76D1CE8E780B2C04380B2C5
:1057740070BC704762F30F2262F31F42401810F0AE
:10578400030308D0C91A1FD3DB0748BF00F8012D53
:1057940028BF20F8022D130030B4144615461039E2
:1057A40028BF20E93C00FAD8490728BF20E90C00AB
:1057B40048BF40F8042D890028BF20F8022D48BFB7
:1057C40000F8012D30BC7047C91818BF00F8012D2E
:1057D400CB0728BF00F8012D7047000038B500241E
:1057E400084D0020E88006212800FFF79FFFE8808D
:1057F4002A00082141F6F870FFF72CFFC0B232BD31
:1058040000000000340E00200021DFF808311A687F
:1058140012F0380202431A607047DFF8F8100A6881
:1058240032F010020A600A6802430A607047DFF827
:10583400E800DFF8E8100160DFF8E4100160704769
:10584400DFF8E000016851F080010160704770B535
:10585400040004265FF4302000F06AF805002800F4
:10586400C0B204281AD1DFF8BC60306850F00200DE
:105874003060DFF8B4000460306850F040003060FD
:105884005FF4302000F054F805002800C0B2052869
:1058940004D0316841F6FD70014031602800C0B287
:1058A40070BDF8B504000D0004274FF4005000F05B
:1058B4003FF806003000C0B2042814D1DFF8647049
:1058C400386850F00100386025804FF4005000F033
:1058D4002FF806003000C0B2052804D0396841F61C
:1058E400FE70014039603000C0B2F2BD04210F489F
:1058F4000268D20701D501200AE00268520701D5E7
:10590400022005E00068C00601D5032000E0042061
:10591400C0B27047002002400420024023016745C2
:10592400AB89EFCD10200240142002400C2002402D
:1059340070B504000425FFF7D9FF06003000C0B29B
:10594400012806D1002C04D0FFF7D0FF0600641E06
:10595400F4E7002C01D1052006003000C0B270BD70
:1059640062B38B0708D0521E11F8013B00F8013BCB
:1059740000F024808B07F6D1830740F0208000BF1D
:10598400103A07D330B4B1E83810103AA0E8381010
:10599400F9D230BC530724BFB1E80810A0E80810BE
:1059A40044BF51F8043B40F8043BD20724BF31F80C
:1059B400022B20F8022B44BF0B7803707047121F90
:1059C40017D35B0009D151F8043B20F8023B1B0CB0
:1059D400121F20F8023BF6D20BE051F8043B00F80A
:1059E400013B1B0A20F8023B1B0C121F00F8013B71
:1059F400F3D238BF121D521E24BF11F8013B00F828
:105A0400013BF8D8704700000300002013F0030F97
:105A140009D0521E22BF13F8010B11F801CBB0EBD1
:105A24000C00F3D0704711F0030F14D1121F22BFE2
:105A340053F8040B51F804CB6045F7D0121D0AD279
:105A440000BA9CFA8CFCB0EB0C0038BF6FF000007D
:105A540088BF01207047521E22BF13F8010B11F8B2
:105A640001CBB0EB0C00F6D0521C08BF10467047B7
:105A740010B586B01221002201AC2000FFF77AFE97
:105A8400042100226C462000FFF774FE03208DF8E9
:105A9400020010208DF803003B4CA088ADF80000F4
:105AA4006946206800F07CF920680169A0880143F8
:105AB40020680161354CA088ADF800006946206873
:105AC40000F06EF920680169A08801432068016133
:105AD4002F488188ADF8001018218DF8031069460D
:105AE400006800F05DF92B4C0021200000F033FA2F
:105AF4000020ADF804004FF48270ADF806000020D9
:105B0400ADF808000020ADF80A000020ADF80C0044
:105B14004FF40070ADF80E002020ADF81000002006
:105B2400ADF812000720ADF8140001A9200000F020
:105B3400F3F90121200000F00EFA06B010BD70B593
:105B440004000025134E0121300000F017FA01284B
:105B540003D1300000F010FA05000221300000F0FB
:105B64000DFA0028F9D02100C9B289B2300000F042
:105B740001FA0121300000F001FA0028F9D03000C8
:105B840000F0FAF9C0B270BDA86F0008A06F000859
:105B9400B06F00080030014000220100481E0029B7
:105BA40006D0BE210A0011004A1E0029FBD1F4E7E9
:105BB400704700000020C8210800411E0028FBD1C6
:105BC40070474FF460514843401C0100481E0029AF
:105BD400FBD1704710B5704CA088216808616F48EC
:105BE400818800680161FFF7E5FF2068806800286C
:105BF40001D1012000E00020217911F001010842C7
:105C040001D0002011E0A08821684861FFF7D2FF8D
:105C140020688068A188084201D0002005E0A0889F
:105C240021684861FFF7C6FF012010BD38B55B4C01
:105C3400A08821684861FFF7BDFF574DA8882968EF
:105C44004861FFF7B7FFA08821680861FFF7B2FF3A
:105C5400A88829680861FFF7ADFF31BD10B54F4C26
:105C6400A08821684861FFF7A5FF4B488188006838
:105C74004161FFF79FFFA08821680861FFF79AFF41
:105C8400A08821684861FFF795FF10BD10B5434C0B
:105C9400A08821684861FFF78DFF3F48818800682C
:105CA4000161FFF787FFA08821680861FFF782FF81
:105CB400A08821684861FFF77DFF10BD38B5374CD7
:105CC400A08821684861FFF775FF334DA8882968CB
:105CD4000861FFF76FFFA08821680861FFF76AFF7A
:105CE40028688068A988084204D0A088216848618F
:105CF400002003E0A08821684861012032BD70B50E
:105D0400040008252800451EC0B2002817D0234EE1
:105D1400B08831684861200604D51F48818800682E
:105D2400016103E01C48818800684161FFF742FF7C
:105D3400B08831680861FFF73DFF6400E2E7174867
:105D440081880068416170BDF8B508240025124EB1
:105D5400B088316808612000441EC0B2002813D006
:105D64006D000E4FB88839684861FFF723FFB88883
:105D740039680861FFF71EFF30688068B1880842FF
:105D8400E9D055F00105E6E70448818800684161DF
:105D94002800C0B2F2BD0000B86F0008C06F000850
:105DA400F0B500220023002400250026002791F8E6
:105DB40003C01CF00F0C91F803E05FEACE6E02D52D
:105DC4008A7852EA0C0C0A7812062AD00268160065
:105DD40000221400082C23D25FF0010E1EFA04F2F4
:105DE40015000A882A401300AB4217D1A2001500FF
:105DF4000F22AA401700BE431CFA05F21643CA78C4
:105E0400282A04D11EFA04FEC0F814E006E0CA7879
:105E1400482A03D11EFA04FEC0F810E0641CD9E736
:105E240006600A88B2F5807F2EDB426816000022E5
:105E34001400082C27D25FF0010E14F108021EFA98
:105E440002F215000A882A401300AB4219D1A200BD
:105E540015000F22AA401700BE431CFA05F2164390
:105E6400CA78282A04D114F108021EFA02F2426107
:105E7400CA78482A05D114F108021EFA02FEC0F8B5
:105E840010E0641CD5E74660F0BDF0B400220023A6
:105E940000250027002802D51D4C246801E01D4C74
:105EA4002468C0F3034586B210F4401CBCF5401FBF
:105EB40007D134F07064174A176837F070671760B9
:105EC40011E0C20206D50322AA4013009C4354F0F9
:105ED400706408E00200520DD2B2120116FA02F206
:105EE400944354F070640A00D2B2002A06D002002F
:105EF400520DD2B2120116FA02F21443002802D54E
:105F0400034A146001E0034A1460F0BC70470000C7
:105F14001C0001400400014030B40023048814F440
:105F240041540D884A8815438A881543CA88154305
:105F34000A8915434A8915438A891543CA89154331
:105F44002C430480858B4FF2FF72154085830A8AA7
:105F5400028230BC70470A00D2B2002A04D0028800
:105F640052F04002028004E003884FF6BF721340EF
:105F74000380704781817047808970470200002345
:105F84001089084201D0012000E00020C0B270470F
:105F94004FF460514843401C0100481E0029FBD1C6
:105FA400704738B5002400F0F1F95FF4803000F058
:105FB4000DFA00F028FA05002800C0B201282AD101
:105FC400002000F05CFA002000F069FA4FF48060D1
:105FD40000F05DFA002000F06EFA002000F068FA8C
:105FE4000220FFF711FC1020FFF717FC5FF480116B
:105FF4005FF4803000F025FA012000F02EFA3920F9
:1060040000F005FB0028FAD0022000F02BFA00F083
:1060140031FA0828FBD131BD10B504002100C9B202
:1060240041F21D0000F0BBFA2100C9B2C74800F0DC
:10603400C4FA10BD80B54FF480415FF0006000F0F9
:1060440067FB4FF4A06000F02BFB01BD1CB50421DD
:1060540000226C462000FFF78DFB0121BC48FFF7AE
:1060640014FF10208DF8030003208DF80200B948B6
:106074008188ADF8001069460068FFF791FEB648C4
:106084008188ADF8001069460068FFF789FEB348BF
:106094008188ADF8001069460068FFF781FE13BDE2
:1060A40070B5FFF77EFFFFF7C5FF0120FFF7B4FFD0
:1060B40072B6FFF7CBFFA84CA08821684861A54DB4
:1060C400A88829684861A54EB08831680861FEF740
:1060D40078F8FFF7CDFCFEF729F85FF4E13000F023
:1060E4003BFB00F07FFB01209D490860A0882168EC
:1060F4000861A88829680861B0883168486162B677
:1061040070BD97490878800713D596480268521CD9
:1061140002600078C00704D58F4882880068426115
:1061240003E08D48828800680261086830F002004C
:1061340008600878C00619D5086830F010000860B7
:10614400086850F02000086087480068874A10609B
:1061540080488288006842618548407910F00100D7
:10616400002803D07D488288006802610878800690
:1061740012D57E48006814307B4A126890420BD2D4
:10618400086830F020000860724881880068016166
:10619400724881880068416170472DE9F84F754C59
:1061A4000F21200000F047FC002811D00F2120000F
:1061B40000F04FFC0021002000F03CFDFDF7ECFF57
:1061C40000F098FC00F01FFD0021012000F032FDDA
:1061D400DFF8A4B19BF80000022803D09BF800006C
:1061E40003283AD10024002540F20C694E465F464C
:1061F400DFF88881C246320039005046FFF7B0FB11
:106204005FF0000A524649465846FFF7B3FAB8F819
:1062140002000B2821DBB8F802004044C688B8F815
:106224000210091F18F10A00FFF780FA310002007A
:1062340089B292B2914210D10022002398F80F4003
:1062440000214F4D85F807111100C9B2002904D06F
:1062540043490B6853F004030B60BDE8F18F2DE94B
:10626400F041484C207EC00708D503211420FEF7D6
:1062740055FF0220FFF78CFEFEF7B4F8207E80075E
:106284000CD594F84E0094F84D10884206D22000A4
:10629400FEF7E8F8002801D00820A061207E00075E
:1062A40004D52000FEF722F91020A061207EC0064C
:1062B4003ED500262000FEF738F905002800C0B2BC
:1062C400002805D094F84E0094F84D1088422DD340
:1062D4004020A061244E3068606103211420FEF741
:1062E4002EFF94F84E0094F84D10884220D32800D5
:1062F400C0B201281CD194F85000002810D1224FBC
:1063040097F8280000280BD1306838610120B87351
:106314000E2614F11E08320041463800FFF720FB18
:106324000F48016851F01001016001E00220A061F2
:10633400207E400607D560693C300B4909688842D5
:1063440001D20120A061BDE8F08100000400020038
:1063540000023000D86F0008C86F0008D06F000832
:106364003C0E0020440E0020480E0020400E002069
:10637400280E0020003801402006002014000020D0
:106384002C0C0020340D0020D00D0020DFF8C412A6
:10639400086850F001000860DFF8BC221368DFF8D9
:1063A400BC02034013600B68DFF8B40203400B60C7
:1063B400086830F480200860106830F4FE00106033
:1063C4005FF41F00DFF89C1208607047DFF8841246
:1063D4000A6832F480320A600A6832F480220A6061
:1063E4000200B2F5803F03D0B2F5802F05D009E05A
:1063F4000A6852F480320A6004E00A6852F4A02267
:106404000A60FFE7704738B500200090002400259B
:10641400312000F0FCF805000098401C0090009822
:10642400B0F5A06F03D02800C0B20028F0D031200E
:1064340000F0EDF8002801D0012000E00020C0B2F7
:1064440032BD30B40023844D2C6834F47C1451EAFA
:10645400000214432C6030BC70470100C9B2824A68
:106464001160704700217C4B1A6892089200024325
:106474001A6070477848006810F00C0070470021DB
:10648400754B1A6832F0F00202431A60704700211B
:10649400714B1A6832F4E06202431A6070470021BB
:1064A4006D4B1A6832F4605252EAC0021A607047A7
:1064B4006E49086070470021674B1A6832F4404205
:1064C40002431A6070472DE9F04F010000220025B5
:1064D40000200026604FD7F800C01CF00C0C634667
:1064E400002B04D0042B05D0082B06D023E0614AEE
:1064F4000A6022E0604A0A601FE03A6812F47012EF
:106504003B6813F480331800920C921C1500002889
:1065140004D15A4A02FB05F20A600BE03A6892037E
:1065240004D5574A02FB05F20A6003E0524A02FB13
:1065340005F20A6001E04F4A0A603C6814F0F00476
:106544002409DFF8409119F804E00A6832FA0EF2DF
:106554004A603B6813F4E0631B0A19F803804A6835
:1065640032FA08F28A603A6812F46052D20A19F8D0
:106574000290D1F804A03AFA09FAC1F80CA03F68D5
:1065840017F44047BF0BDFF800A11AF807A0D1F8B1
:106594000CB0BBFBFAFBC1F810B0BDE8F08F0A00E9
:1065A400D2B2002A04D0394A13680343136003E0CB
:1065B400364A13688343136070470A00D2B2002A34
:1065C40004D0334A13680343136003E0304A13686A
:1065D4008343136070470A00D2B2002A04D02D4AC4
:1065E40013680343136003E02A4A13688343136068
:1065F40070470A00D2B2002A04D0274A1368034322
:10660400136003E0244A136883431360704730B473
:1066140001000020002300250A00D2B25209D2B2A0
:10662400012A02D10B48046806E0022A02D110486C
:10663400046801E0194804680B00DBB213F01F037F
:106644002000D840C00701D5012000E00020C0B2DE
:1066540030BC704700100240041002400000FFF8F4
:10666400FFFFF6FE0810024060004242D80042429A
:106674002010024000127A00001BB70000093D0000
:10668400808D5B00000000201000002018100240E4
:106694001C1002400C100240101002402410024052
:1066A40025490143254A11607047F0B400220023B4
:1066B4000F24C17800291FD02049096811F4E06132
:1066C400D1F5E061090AD1F104052B00CC404578ED
:1066D4009D408678264035432D012A00184D0678C2
:1066E400AA550125067816F01F06B540154E077801
:1066F4007F1146F8275009E00121057815F01F05A0
:10670400A940114D0678761145F82610F0BC704763
:106714000E4A0A4002430E4B1A607047042805D102
:106724000C490A6852F004020A6004E009490A6844
:1067340032F004020A6070470000FA050CED00E034
:1067440000E400E000E100E080E100E080FFFF1FE2
:1067540008ED00E010E000E010B50400200000F0B7
:10676400C9F900F050FA0021012000F063FA20007A
:1067740000F006FA03490A884FF6FE7002400A80C8
:1067840010BD00BF0008004010B4020052B2002A3D
:1067940005D40A011D4B040064B21A5508E00A012D
:1067A4001B4B040064B214F00F04234403F8042CBC
:1067B40010BC704710B50400601EB0F1807F01D397
:1067C40001200EE0601E134908600F215FF0FF30C6
:1067D400FFF7DAFF00201049086007200F4908601E
:1067E400002010BD80B50420FFF798FF0C48FFF788
:1067F400E1FF00200B49086000200B4908600F21CD
:106804005FF0FF30FFF7C0FF01BD000000E400E0CF
:1068140018ED00E014E000E018E000E010E000E013
:10682400407E0500480E00204C0E002010B50400E8
:10683400584884420AD101214FF48040FFF7CBFE2F
:1068440000214FF48040FFF7C6FE36E052488442F0
:106854000AD101215FF40030FFF7CBFE00215FF481
:106864000030FFF7C6FE28E04C4884420AD10121DB
:106874005FF48020FFF7BDFE00215FF48020FFF766
:10688400B8FE1AE0464884420AD101215FF4002090
:10689400FFF7AFFE00215FF40020FFF7AAFE0CE033
:1068A4004048844209D101215FF48010FFF7A1FE22
:1068B40000215FF48010FFF79CFE10BD2DE9F84F16
:1068C40086B004000D00002600275FF000085FF08A
:1068D40000095FF0000AA8890028A346218A4CF623
:1068E400FF700140E8880143009100982082A1894B
:1068F4004EF6F3100140AA882889024368890243AE
:10690400114300910098A081A18A4FF6FF400140F5
:10691400A889014300910098A08201A8FFF7D3FD44
:106924001C48834501D1049900E00399A08900041F
:1069340007D5192000FB01F02A685200B0FBF2F2DF
:1069440006E0192000FB01F02A689200B0FBF2F285
:106954006420B2FBF0F6360133001B09642000FB0F
:106964001323A089000408D5D80032306427B0FB73
:10697400F7F010F00700064307E0180132306427EF
:10698400B0FBF7F010F00F000643268107B0BDE816
:10699400F08F0000003801400044004000480040EF
:1069A400004C0040005000400A00D2B2002A04D03B
:1069B400828952F40052828104E083894DF6FF7289
:1069C4001340838170472DE9F041002300250027FF
:1069D4005FF0000E0C0040F66A16A4B2B442804682
:1069E4000C00E4B26409E4B20E00B6B216F01F065D
:1069F4005FF0010C1CFA06FC012C02D118F10C0802
:106A040006E0022C02D118F1100801E018F1140874
:106A14001300DBB2002B06D0D8F800305CEA030385
:106A2400C8F8003005E0D8F8003033EA0C03C8F8A1
:106A34000030BDE8F08102000023080080B2B0F508
:106A4400007F1088084201D0012000E00020C0B27D
:106A540070470A0092B292050A0092B2D2430280B1
:106A64007047F0B4040000270020002200260B0029
:106A740040F66A159BB2AB420D00EDB26D09EDB262
:106A84000B009BB213F01F035FF0010C1CFA03F31D
:106A9400012D02D1A089034006E0022D02D1208AF3
:106AA400034001E0A08A03400A0092B2120A92B2A3
:106AB4001CFA02F220880240002B03D0002A01D0E5
:106AC400012000E00020C0B2F0BC704770B4002286
:106AD40000240B0040F66A159BB2AB420B009BB23C
:106AE4001B0A01259D402E00B6B2F643068070BCF9
:106AF4007047000030B585B00400042100226D46C3
:106B04002800FEF737FE1021002201AD2800FEF711
:106B140031FE544D2800FFF789FE53488188ADF8B3
:106B2400001003218DF8021018218DF80310694616
:106B34000068FFF735F94D488188ADF8001004214D
:106B44008DF8031069460068FFF72AF901940020C4
:106B5400ADF808000020ADF80A000020ADF80C00E4
:106B64000020ADF810000C20ADF80E0001A928009B
:106B7400FFF7A4FE01212800FFF716FF05B030BD82
:106B840038B584B004000A21002201AD2800FEF7C4
:106B9400F1FD042100226D462800FEF7EBFDB4F55B
:106BA400165F04D140F6AA70ADF8080003E040F285
:106BB400D660ADF808007720ADF804000020ADF8E9
:106BC4000A000020ADF80600294D01A9280000F0B4
:106BD40051F801220121280000F0ADF8002128001D
:106BE40000F09AF81E208DF8000003208DF80100B3
:106BF40003208DF8020001208DF803006846FFF79A
:106C040054FD05B030BD1CB5042100226C462000A3
:106C1400FEF7B0FD25208DF8000003208DF801005B
:106C240002208DF8020001208DF803006846FFF76A
:106C34003CFD13BD70B504000D000A4E40F2A55191
:106C44003000FFF743FF2200D2B240F2255130005A
:106C5400FFF7B9FE2A00D2B240F226613000FFF7F6
:106C6400B2FE70BD00380140E06F0008E86F000814
:106C74000008004010B4002204881D4B98420ED036
:106C8400214A90420BD0B0F1804F08D0194A90426B
:106C940005D0194A904202D0184A904204D14FF6C6
:106CA4008F7214404A881443154A904207D0154AFB
:106CB400904204D04FF6FF421440CA881443048023
:106CC4008A8882850A88028598420BD00E4A9042AF
:106CD40008D00E4A904205D00D4A904202D00D4A87
:106CE400904201D10A7A02860122828210BC704746
:106CF400002C01400004004000080040000C00404B
:106D040000100040001400400034014000400140E5
:106D140000440140004801400A00D2B2002A04D0D5
:106D2400028852F00102028004E003884FF6FE72EA
:106D34001340038070471300DBB2002B03D0838918
:106D44000B43838102E083898B4383817047000076
:106D54007047FEE7FEE7FEE7FEE7704770477047BF
:106D64003A480168491C016000683321B0FBF1F224
:106D740001FB1200002804D13548016851F042019A
:106D840001603448017809060AD5D0F80816491D6F
:106D9400C0F80816D0F80816642901D3022101703E
:106DA400704770B52C4C40F2255529002000FFF7A0
:106DB40058FE002828D0002629002000FFF786FE70
:106DC4002648008823490A7812F0C00F0FD00A78A9
:106DD40052F080020A708A880A4410728A88521C0F
:106DE4008A808A88B2F5C06F01D101220A7089882D
:106DF400012905D11A490A8852F001020A800EE0DD
:106E04000121184A11800AE04FF458712000FFF75D
:106E140028FE002803D011480088C005C00D208832
:106E240010F47C40208070BD0F480188C9070BD541
:106E34004FF6FE7101800A490A884FF6FE7002403F
:106E44000A8002200349087070470000480E0020A1
:106E54003C0E002020060020003801400438014088
:106E6400000800402408004010080040704700005B
:106E740080B50E49086850F0010008600C4A136898
:106E84000C48034013600B680B4803400B60086810
:106E940030F480200860106830F4FE0010605FF465
:106EA4001F000649086000F00BF801BD0010024005
:106EB400041002400000FFF8FFFFF6FE0810024035
:106EC4007047000010B5074979441831064C7C44DA
:106ED400163404E00A68081D114488470146A1429B
:106EE400F8D110BD0800000028000000F1D7FFFF12
:106EF4003C0E0000140000200000000001E8FFFF29
:106F040014000000680000000000002000000000E1
:106F140000F00DF8002801D0FFF7D4FFAFF3008094
:106F24000020AFF3008000F004F800F00CF801201A
:106F3400704780B5FFF7B4F8FFF7E3F8FFF72DF9D2
:106F4400FFF78DF9F8E700F001B80000074638466E
:106F540000F002F8FBE7000080B5AFF30080024ABE
:106F640011001820ABBEFBE7260002000000000061
:106F740001020304010203040607080902040608C7
:106F84000148804701480047756E0008956F000866
:106F9400AFF30080AFF30080FFF7BAFF000C0140AD
:106FA400010000000008014010000000000801403A
:106FB400E0000000000C014080000000000C0140D3
:106FC400400000000008014000400000000C0140A7
:106FD400008000000008014000010000000801409A
:106FE400000200000008014000040000FFF7FEBF9B
:106FF400FFF7FEBFFFF7FEBFFFF7FEBFFFF7FEBFC1
:10700400FFF7FEBFFFF7FEBFFFF7FEBFFFF7FEBFB0
:10701400FFF7FEBFFFF7FEBFFFF7FEBFFFF7FEBFA0
:10702400FFF7FEBFFFF7FEBFFFF7FEBFFFF7FEBF90
:10703400FFF7FEBFFFF7FEBFFFF7FEBFFFF7FEBF80
:10704400FFF7FEBFFFF7FEBFFFF7FEBFFFF7FEBF70
:10705400FFF7FEBFFFF7FEBFFFF7FEBFFFF7FEBF60
:10706400FFF7FEBFFFF7FEBFFFF7FEBFFFF7FEBF50
:10707400FFF7FEBFFFF7FEBFFFF7FEBFFFF7FEBF40
:10708400FFF7FEBFFFF7FEBFFFF7FEBFFFF7FEBF30
:10709400FFF7FEBFFFF7FEBFFFF7FEBFFFF7FEBF20
:1070A400FFF7FEBFFFF7FEBFFFF7FEBFFFF7FEBF10
:1070B400FFF7FEBFFFF7FEBFFFF7FEBFFFF7FEBF00
:1070C400FFF7FEBFFFF7FEBFFFF7FEBFFFF7FEBFF0
:0400000508006F95EB
:00000001FF
