:020000040800F2
:104000009015002049730008197100081B71000801
:104010001D7100081F7100082171000800000000D8
:1040200000000000000000000000000023710008F4
:1040300025710008000000002771000829710008A0
:10404000B5730008B9730008BD730008C173000898
:10405000C5730008C9730008CD730008D173000848
:10406000D5730008D9730008DD730008E1730008F8
:10407000E5730008E9730008ED730008F1730008A8
:10408000F5730008F9730008FD7300080174000857
:104090003572000805740008097400080D740008E2
:1040A0001174000815740008197400081D740008C4
:1040B0002174000825740008F171000829740008B3
:1040C0002D74000831740008357400083974000834
:1040D0003D7400086B7100084174000845740008C5
:1040E000497400084D7400085174000855740008A4
:1040F000597400085D740008617400086574000854
:10410000697400086D740008717400087574000803
:10411000797400087D7400088174000885740008B3
:10412000897400088D740008917400089574000863
:1041300062F30F2262F31F42401810F0030308D00D
:10414000C91A1FD3DB0748BF00F8012D28BF20F88C
:10415000022D130030B414461546103928BF20E94B
:104160003C00FAD8490728BF20E90C0048BF40F8B6
:10417000042D890028BF20F8022D48BF00F8012D2A
:1041800030BC7047C91818BF00F8012DCB0728BFF5
:1041900000F8012D704730B4002513E050F8042BCF
:1041A000D30744BFA9F101039A18091F042942F853
:1041B000045BFAD213468C0744BF15809B1CC907C9
:1041C00048BF1D7050F8041B0029E7D130BC704770
:1041D000F0B500220023002400250026002791F8D6
:1041E00003C01CF00F0C91F803E05FEACE6E02D51D
:1041F0008A7852EA0C0C0A7812062AD00268160055
:1042000000221400082C23D25FF0010E1EFA04F2E3
:1042100015000A882A401300AB4217D1A2001500EE
:104220000F22AA401700BE431CFA05F21643CA78B3
:10423000282A04D11EFA04FEC0F814E006E0CA7869
:10424000482A03D11EFA04FEC0F810E0641CD9E726
:1042500006600A88B2F5807F2EDB426816000022D5
:104260001400082C27D25FF0010E14F108021EFA88
:1042700002F215000A882A401300AB4219D1A200AD
:1042800015000F22AA401700BE431CFA05F2164380
:10429000CA78282A04D114F108021EFA02F24261F7
:1042A000CA78482A05D114F108021EFA02FEC0F8A5
:1042B00010E0641CD5E74660F0BDF0B40022002396
:1042C00000250027002802D51D4C246801E01D4C64
:1042D0002468C0F3034586B210F4401CBCF5401FAF
:1042E00007D134F07064174A176837F070671760A9
:1042F00011E0C20206D50322AA4013009C4354F0E9
:10430000706408E00200520DD2B2120116FA02F2F5
:10431000944354F070640A00D2B2002A06D002001E
:10432000520DD2B2120116FA02F21443002802D53D
:10433000034A146001E0034A1460F0BC70470000B7
:104340001C0001400400014070B504000D00DFF8BE
:10435000A06330684169B088014330684161600002
:1043600010F07F0001F0DBFE2800C0B201F0D7FEA4
:1043700030680169B08801433068016170BD70B573
:1043800004000025DA4E30684169B0880143306886
:104390004161600050F08000C0B201F0C0FE00201A
:1043A00001F0BDFE31680A69B1880A4331680A61CB
:1043B000C0B270BDF8B504000D0000262000C0B2E8
:1043C000FFF7DDFF07002F433900C9B22000C0B25C
:1043D000FFF7BAFFF1BDF8B504000D00002620007C
:1043E000C0B2FFF7CCFF0700AF433900C9B22000CD
:1043F000C0B2FFF7A9FFF1BD2DE9F04104000D00A7
:104400000027BB4E30684169B08801433068416184
:10441000922001F084FE5FF000084046C0B22900FF
:10442000C9B2491E884208DA922001F078FE41465E
:10443000C9B2605418F10108EFE7002001F06FFEE7
:104440004146C9B2605430680169B08801433068A0
:104450000161BDE8F0812DE9F04104000D00002765
:10446000A34E30684169B088014330684161122031
:1044700001F055FE5FF0000840462900C0B2C9B205
:10448000884207D24046C0B2205C01F048FE18F1D5
:104490000108F1E730680169B088014330680161C3
:1044A000BDE8F08170B500240025924E3068416966
:1044B000B0880143306841614FF4807001F05CFEC8
:1044C00030680169B0880143306801614FF40070C1
:1044D00001F052FE40211520FFF736FF1520FFF7AF
:1044E0004EFF01000800C0B2402801D101200500A4
:1044F0002800C0B270BD2DE9F04700255FF0000A2A
:1045000000265FF000090027DFF8EC81002088F822
:104510004200D8F84440240900210120FFF714FF8D
:1045200080210A20FFF710FF7F210420FFF70CFFF6
:1045300098F8410041280CDB402118F10100FFF7F9
:104540008AFF19F1400998F84100403888F8410085
:1045500010E098F8411018F10100FFF77CFF98F87F
:10456000410010EB090998F8411098F84100091A28
:1045700088F841107F210420FFF7E6FE98F800102C
:1045800011F00F010120FFF7DFFE98F800000C2862
:1045900003D180210D20FFF70DFF98F8410000287E
:1045A00034D00420FFF7EBFE060070072AD598F8F8
:1045B000410031280EDB30214846C0B24044401C47
:1045C000FFF749FF19F1300998F84100303888F8B1
:1045D000410012E098F841104846C0B24044401CE7
:1045E000FFF739FF98F8410010EB090998F84110DE
:1045F00098F84100091A88F8411004210420FFF7B7
:10460000A3FECAE7B007C8D5002004007F2104201C
:10461000FFF79AFE002C57D0012001F0ADFD0420D9
:10462000FFF7ADFE0600B00705D50C200500002001
:1046300088F8420048E0B00611D50A20FFF79FFE37
:1046400007003900C9B298F842004044401CFFF707
:10465000D3FE98F84200381888F8420034E070061B
:104660001CD5300715D50A20FFF789FE0700390051
:10467000C9B298F842004044401CFFF7BDFE082133
:104680000420FFF761FE98F84200381888F84200CD
:1046900018E098F80000042814D115E0F00611D5B0
:1046A0000A20FFF76CFE07003900C9B298F84200F3
:1046B0004044401CFFF7A0FE98F84200381888F8E4
:1046C000420001E0641EA5E700210120FFF73CFE47
:1046D00098F800000C2803D180210D20FFF77BFE05
:1046E000002C01D1032005002800C0B2BDE8F087EE
:1046F0006C73000864730008A40E00202DE9F041DB
:1047000005000E0017009846069C2800C0B200283D
:1047100003D008210820FFF75EFE3000C0B2002859
:1047200004D080211220FFF745FE03E080211220F3
:10473000FFF751FE3800C0B2002804D080211320BA
:10474000FFF738FE03E080211320FFF744FE58EA0C
:104750000411C9B20D20FFF7F7FDBDE8F08130B4B8
:104760000EE00268436802440830DC0744BFA9F148
:104770000104E31852F8045B43F8045B091FF9D104
:1047800050F8041B0029ECD130BC704770B4030012
:104790000022002400264FF6FF7000258D4214D21F
:1047A0005A5D504000221600082E0CD2C20706D5D2
:1047B00080B2020048F2084090EA520001E080B264
:1047C0004008761CF0E76D1CE8E780B2C04380B279
:1047D00070BC70470021DFF808311A6812F0380207
:1047E00002431A607047DFF8F8100A6832F01002CE
:1047F0000A600A6802430A607047DFF8E800DFF8E1
:10480000E8100160DFF8E41001607047DFF8E000B5
:10481000016851F080010160704770B50400042602
:104820005FF4302000F06AF805002800C0B20428C8
:104830001AD1DFF8BC60306850F002003060DFF859
:10484000B4000460306850F0400030605FF4302005
:1048500000F054F805002800C0B2052804D03168E3
:1048600041F6FD70014031602800C0B270BDF8B55E
:1048700004000D0004274FF4005000F03FF806003C
:104880003000C0B2042814D1DFF86470386850F0EA
:104890000100386025804FF4005000F02FF806002A
:1048A0003000C0B2052804D0396841F6FE700140DE
:1048B00039603000C0B2F2BD04210F480268D2074F
:1048C00001D501200AE00268520701D5022005E067
:1048D0000068C00601D5032000E00420C0B2704784
:1048E000002002400420024023016745AB89EFCD40
:1048F00010200240142002400C20024070B5040039
:104900000425FFF7D9FF06003000C0B2012806D108
:10491000002C04D0FFF7D0FF0600641EF4E7002C43
:0C49200001D1052006003000C0B270BDBF
:10500000523030303120323530313138303020526A
:105010003030312D5343482D4D422D323530313013
:105020003000000000000000000000000000000050
:0250300000007E
:105034004FF460514843401C0100481E0029FBD135
:10504400704738B5042100226C462000FFF76EF843
:1050540010208DF8030003208DF80200DFF8844A45
:10506400DFF8845AA988A0880143ADF80010694686
:105074002868FFF7ABF8A88829684861A0882168E8
:10508400486131BD38B5FFF7DCFFFFF709FA00F0DE
:1050940047FDDFF8584A200000F0C6F8002805D084
:1050A400DFF84C0A00F0C0F8002806D1200000F018
:1050B40040F9DFF83C0A00F03CF9DFF8384A2000F8
:1050C40000F02BF8002813D0DFF82C5A288845F27A
:1050D400555188420CD1DFF8240A00F01EF800284C
:1050E40006D06888DFF8181A498891EA000F0FD0B3
:1050F400DFF8040ADFF8081A4988418045F255515F
:105104000180200000F04FF8DFF8F00900F04BF8C0
:105114000120DFF8F019486331BD2DE9FE4F04008A
:105124000020002100220025002600270294DFF839
:10513400C889CDF804805FF000094846C0B2102841
:105144000AD202984946C9B2405C01994A46D2B291
:10515400885419F10109F0E70C210198FFF714FBB9
:105164008246D8F80C00ADF800005046BDF8001097
:1051740080B2884211D010250026C346320029008F
:105184005846FEF7D3FFDFF878094088A8F80200F4
:1051940045F25550A8F8000001E00120070038004E
:1051A400C0B2BDE8FE8F2DE9F047040000250026BB
:1051B40000275FF00108DFF840A9D1460020CAF8B3
:1051C4000C000C214846FFF7DFFACAF80C00FFF781
:1051D40012FB2000FFF71FFB82465046C0B2042892
:1051E4001CD100200500280080B2092810D25046A6
:1051F400C0B204280CD1280080B239F8101028005D
:1052040080B214EB4000FFF730FB82466D1CEAE7E6
:10521400280080B2082801D301200600FFF7F4FA21
:105224003000C0B2BDE8F0872DE9FE4F0400002035
:10523400002100220025002600270294DFF8C08800
:10524400CDF804805FF00009484680B22E280AD2C7
:105254000298494689B2405C01994A4692B2885400
:1052640019F10109F0E72C210198FFF78DFA824624
:10527400B8F82C00ADF800005046BDF8001080B21C
:10528400884250D02E250026C346320029005846B5
:10529400FEF74CFF0120A8F80200082088F804005B
:1052A400212088F80500212088F80600212088F8AC
:1052B4000700212088F80800212088F8090021200F
:1052C40088F80A00212088F80B00212088F80C00B7
:1052D400522088F81500522088F81600522088F8C9
:1052E4001700522088F81800522088F8190052201C
:1052F40088F81A00522088F81B00522088F81C00F5
:10530400132088F82500142088F82600132088F834
:105314002700142088F82800132088F82900142076
:1053240088F82A0001E0012007003800C0B2BDE877
:10533400FE8F2DE9F04704000025002600275FF0CA
:105344000108DFF8BCA7D1460020AAF82C002C21C4
:105354004846FFF719FAAAF82C00FFF74CFA200088
:10536400FFF759FA82465046C0B204281CD10020E7
:105374000500280080B2182810D25046C0B2042874
:105384000CD1280080B239F81010280080B214EB38
:105394004000FFF76AFA82466D1CEAE7280080B2F3
:1053A400172801D301200600FFF72EFA3000C0B2FF
:1053B400BDE8F0872DE9F84F00240020DFF84417FA
:1053C4000D0001224A63002281F86220002281F844
:1053D4006120002281F86020002281F865200022EB
:1053E40081F86620002281F83820002281F86320A9
:1053F400DFF81417002281F84020002281F84120B0
:10540400002281F8422001210200D2B22A4482F80B
:105414005810401C02210200D2B22A4482F85810CB
:10542400401C03210200D2B22A4482F85810401CC6
:1054340004210200D2B22A4482F85810401C0521EB
:105444000200D2B22A4482F85810401C8DF80000A1
:105454000020E8629DF8000085F861000626DFF868
:10546400A07617F1250815F1260932004146484671
:1054740000F064FD5FF0200917F1050A15F1060B31
:105484004A465146584600F059FD3879A870022022
:105494006863BDE8F18F2DE9F04704000020012581
:1054A400002194F86220224492F85860DFF858767C
:1054B4003200D2B2012A07D047D3032A28D023D3FB
:1054C400052A3ED032D340E0522114F13A0000F0D4
:1054D40006FC002811D1012084F838005FF00E0882
:1054E40014F13A0917F1140A42464946504600F0AD
:1054F40025FD002084F8670005E0012084F867009A
:10550400002084F8380022E0002084F867001EE0C0
:1055140097F840002044837814F12602602114F1A6
:105524003D0000F07AFC84F8670010E014F14801B3
:1055340097F840002044807800F0C4FC84F86700A9
:1055440005E0002084F8670001E000200500012048
:10555400FFF76EFD2800C0B2BDE8F087002190F887
:105564006220024492F8582090F8670070470100C6
:1055740000220020020091F86130D2B29A420AD28D
:105584000200D2B20A4492F85820022A01D1401CE7
:1055940001E0401CEEE7C0B270472DE9F84F04006B
:1055A4000125002000220021DFF85C6594F86230B8
:1055B400234493F8587094F867803B00DBB2012BC6
:1055C4000BD0C0F01A81032B00F0998069D3052B0E
:1055D40000F0D180C0F0B1800FE14046C0B2002895
:1055E40048D1002086F8420094F86200401C84F8F8
:1055F40062000E22310014F13A0000F0F3FC00289E
:105604000DD1DFF8080500683061012084F86500D9
:1056140094F8610084F862000120050040E00E2245
:1056240016F12C0114F13A0000F0DCFC002837D10B
:10563400002086F83A00F16BE06A4118DFF8CC04E8
:105644000068814213D2002086F83B005FF00E0907
:105654005FF0000A16F12C0B524649465846FEF7F5
:1056640065FD2000FFF783FF84F8620018E0002046
:10567400050015E096F8420003280CDB002086F8AC
:10568400420000200500B07B002803D03100200038
:1056940000F0E6F904E096F84200401C86F8420067
:1056A400ADE04046C0B200281AD1002086F842007E
:1056B4005FF00E0914F13A0A16F12C0B4A465146D2
:1056C400584600F03BFC002086F83A00012086F89A
:1056D4003B00DFF838040068F063002005000DE0AB
:1056E40096F84200401C86F8420096F842000328CF
:1056F40004DB002086F84200002005007FE04046DD
:10570400C0B200280AD1002086F8420094F8620052
:10571400401C84F86200012005000DE096F8420068
:10572400C01C86F8420096F84200032804DB0020DF
:1057340086F842000020050061E04046C0B200281F
:105744000AD1002086F8420094F86200401C84F8D4
:105754006200012005000DE096F84200401C86F826
:10576400420096F84200032804DB002086F8420039
:105774000020050043E04046C0B200282ED100209E
:1057840086F8420094F86200401C84F86200082203
:10579400A11D14F1480000F025FC002808D10120C7
:1057A40084F86600012084F864000120050023E0E9
:1057B400082214F1160114F1480000F013FC00282B
:1057C40008D1012084F86600022084F864000120D6
:1057D400050011E0002084F866000DE096F8420010
:1057E400401C86F8420096F84200032804DB00209F
:1057F40086F842000020050001E000200500280092
:10580400C0B2BDE8F28F2DE9F84F04000D0000236B
:1058140000200021002200260027B4F80580C44699
:105824001FFA8CFC4FF6FF7EF44509D04046DFF8A2
:10583400D0C2BCF802C080B2604501D0002067E04D
:10584400DFF8CC92B4F80300A9F80401002089F829
:105854000000E0798DF800009DF8000089F8060149
:10586400002089F80101002089F80201A0780028AD
:1058740004D1B4F809A014F10B0B03E0B5F10B0A41
:1058840014F1090B9DF80000042804D0F7280ED069
:10589400F82818D023E0504680B2002806D14A46A2
:1058A4000021002000F036F889F8000017E0504687
:1058B40080B2002806D14A463221964800F02AF8E0
:1058C40089F800000BE0504680B2002806D14A4611
:1058D4000C21914800F01EF889F80000FFE799F8C0
:1058E4000000002811D157EA0600C0B200280CD1EC
:1058F400012089F80101042089F802014A460021A7
:10590400002000F007F889F8000099F8000080B240
:10591400BDE8F28F2DE9F84F05000E0017000024B2
:105924005FF000087E20210089B239444870641C6D
:105934005520210089B239444870641C002021009C
:1059440089B239444870641C6D484188220092B27F
:105954003A445170641C408880B2000A210089B224
:1059640039444870641CB7F80401210089B23944F1
:105974004870641CB7F8040180B2000A210089B29F
:1059840039444870641C1F20210089B2394448708E
:10599400641C97F80601210089B239444870641CDC
:1059A4000020210089B239444870641C300080B260
:1059B400F5281CDB200080B238444670641C30009B
:1059C40080B2000A210089B239444870641CB1468F
:1059D4001FFA89F9AA46200080B2384410F1010B5D
:1059E4004A465146584600F0A9FA34191FE0B14618
:1059F4001FFA89F9AA46200080B2384410F1010B3D
:105A04004A465146584600F099FA341997F801016C
:105A1400210089B239444870641C97F802012100BE
:105A240089B239444870641C2000401EF87021007B
:105A340089B2891EF81CFEF7A7FE0100200080B27F
:105A440038444170641C20000A0092B2120A030018
:105A54009BB23B445A70401C387080B2BDE8F28F50
:105A64002DE9F84304000D002869643027490968CA
:105A7400884210D20E260027DFF88C80C1463A00F7
:105A840031004846FEF752FB002088F80E00002043
:105A94001C4981F86400BDE8F18320490200D2B2B8
:105AA4000B7893EA020F1AD008700100C9B2C90733
:105AB40004D50D498A8809680A6110E00100C9B259
:105AC400890704D507498A8809680A6107E00649F5
:105AD4008A8809684A6103498A8809684A61704763
:105AE40000000000847300087C73000800E80008CC
:105AF40000E0000800F80008640F002000F000082F
:105B0400340F00203C0E0020EC0E0020800F0020FB
:105B1400340D002000500008E8F7FF1F880F002014
:105B240080B503211420FEF754FC3D211120FEF71B
:105B340009FC00212A20FEF705FCFF212D20FEF799
:105B440001FCFF212C20FEF7FDFB10210B20FEF7AA
:105B5400F9FB00210120FEF7F5FB002002BD010046
:105B640000220B784878434088784340C878434003
:105B7400087943401800C0B2002801D1002000E099
:105B840011207047F8B504000D000026DFF8A87353
:105B94007C70012087F841004FF4FA7078640C207F
:105BA4003870002000900723002200210120FEF716
:105BB400A3FDFEF79EFC0100C9B2002908D1B97803
:105BC40029802988090229802A8879780A432A8029
:105BD400C0B2F2BD2DE9FC4704000D005FF00008DF
:105BE4000027DFF854933800C0B2484444707F1C47
:105BF40020203900C9B2494448707F1C89F841709B
:105C040042F21070C9F844000C2089F8000000200A
:105C140000900023002200210020FEF76DFDFEF716
:105C240068FC06003000C0B2002811D119F1010847
:105C34004046FFF794FF06003000C0B2002807D1A9
:105C44005FF00509AA464A464146504600F076F9F7
:105C54003000C0B2BDE8F6872DE9FE4F04000D0008
:105C6400160000275FF0000ADFF8CC825046C0B26D
:105C7400404444701AF1010A70205146C9B24144AB
:105C840048701AF1010A5FF0050901955046C0B247
:105C9400404410F1010B4A460199584600F04EF970
:105CA4001AF1050A88F841A042F21070C8F84400BD
:105CB4000C2088F80000002000900023012201211C
:105CC4000020FEF719FDFEF714FC0100C9B20029FB
:105CD40002D198F801103170C0B2BDE8FE8F2DE9F1
:105CE400FE4304000D00002721002800C0B2FFF786
:105CF40049FF06003000C0B2002840F08A802088A6
:105D0400B0F5406F00F085802088032800F0818082
:105D14000A2100226F463800FEF708FA69469320EC
:105D2400FFF758FF06003000C0B2002871D114F10B
:105D34000D0269469320FFF78FFF06003000C0B2C2
:105D4400002866D10420A0709DF80000882857D14F
:105D540003270DF1010814F103093A0041464846AE
:105D640000F0ECF869469520FFF734FF0600300098
:105D7400C0B200284DD114F10D0269469520FFF7F9
:105D84006BFF06003000C0B2002842D10720A0708B
:105D94009DF80000882829D103270DF1010814F18A
:105DA40006093A004146484600F0C8F8694697207B
:105DB400FFF710FF06003000C0B2002829D114F10B
:105DC4000D0269469720FFF747FF06003000C0B276
:105DD40000281ED10A20A0700427E84614F10909FE
:105DE4003A004146484600F0A9F812E00427E84684
:105DF40014F106093A004146484600F09FF808E0CD
:105E04000427E84614F103093A004146484600F0E5
:105E140095F83000C0B2BDE8FE832DE9F34F85B09C
:105E240015001E00002700208DF804000024DFF870
:105E340008819DF818002100C9B241444870641CCF
:105E44002000C0B240444670641C5FF0060903950C
:105E54002000C0B2404410F1010A4A46039950465A
:105E640000F06CF8A41D5FF0040A0598029020006D
:105E7400C0B2404410F1010B52460299584600F05A
:105E84005DF8241D88F841404FF4FA60C8F84400D6
:105E94000E2088F80000002000900023002200213A
:105EA4000020FEF729FCFEF724FB0820FEF765FA24
:105EB4000100080701D40F2007003800C0B207B062
:105EC400BDE8F08F2DE9FC4705000E005FF00009E6
:105ED4000024DFF8648030202100C9B241444870B6
:105EE400641C2000C0B240444570641C88F84140E2
:105EF40042F21070C8F844000C2088F8000000201A
:105F040000900023012201210020FEF7F5FBFEF79B
:105F1400F0FA07003800C0B2002809D15FF0100978
:105F240018F10108B2464A464146504600F006F8C8
:105F34003800C0B2BDE8F687A40E002062B38B0718
:105F440008D0521E11F8013B00F8013B00F02480F8
:105F54008B07F6D1830740F0208000BF103A07D3A7
:105F640030B4B1E83810103AA0E83810F9D230BC97
:105F7400530724BFB1E80810A0E8081044BF51F843
:105F8400043B40F8043BD20724BF31F8022B20F82D
:105F9400022B44BF0B7803707047121F17D35B00AA
:105FA40009D151F8043B20F8023B1B0C121F20F8C6
:105FB400023BF6D20BE051F8043B00F8013B1B0A0C
:105FC40020F8023B1B0C121F00F8013BF3D238BF30
:105FD400121D521E24BF11F8013B00F8013BF8D8F2
:105FE400704700000300002013F0030F09D0521E75
:105FF40022BF13F8010B11F801CBB0EB0C00F3D066
:10600400704711F0030F14D1121F22BF53F8040B71
:1060140051F804CB6045F7D0121D0AD200BA9CFA9D
:106024008CFCB0EB0C0038BF6FF0000088BF01207F
:106034007047521E22BF13F8010B11F801CBB0EBCD
:106044000C00F6D0521C08BF1046704710B586B03D
:106054001221002201AC2000FEF768F8042100227E
:106064006C462000FEF762F803208DF80200102031
:106074008DF803003B4CA088ADF800006946206809
:10608400FEF7A4F820680169A08801432068016133
:10609400354CA088ADF8000069462068FEF796F8F4
:1060A40020680169A0880143206801612F48818824
:1060B400ADF8001018218DF8031069460068FEF74A
:1060C40085F82B4C0021200000F081F80020ADF869
:1060D40004004FF48270ADF806000020ADF808000B
:1060E4000020ADF80A000020ADF80C004FF4007059
:1060F400ADF80E002020ADF810000020ADF812001D
:106104000720ADF8140001A9200000F041F8012196
:10611400200000F05CF806B010BD70B50400002546
:10612400134E0121300000F065F8012803D130003E
:1061340000F05EF805000221300000F05BF8002852
:10614400F9D02100C9B289B2300000F04FF8012122
:10615400300000F04FF80028F9D0300000F048F883
:10616400C0B270BD6C7300086473000874730008D7
:106174000030014000220100481E002906D0BE2143
:106184000A0011004A1E0029FBD1F4E77047000001
:1061940030B40023048814F441540D884A8815430C
:1061A4008A881543CA8815430A8915434A891543C1
:1061B4008A891543CA8915432C430480858B4FF281
:1061C400FF72154085830A8A028230BC70470A0038
:1061D400D2B2002A04D0028852F04002028004E0C5
:1061E40003884FF6BF721340038070478181704764
:1061F40080897047020000231089084201D00120E1
:1062040000E00020C0B270474FF460514843401C86
:106214000100481E0029FBD1704738B5002400F066
:1062240015FA5FF4803000F031FA00F04CFA050002
:106234002800C0B201282AD1002000F080FA0020F2
:1062440000F08DFA4FF4806000F081FA002000F035
:1062540092FA002000F08CFA0220FEF7B9FA10201E
:10626400FEF7BFFA5FF480115FF4803000F049FA62
:10627400012000F052FA392000F029FB0028FAD05E
:10628400022000F04FFA00F055FA0828FBD131BD86
:1062940010B504002100C9B245F21D0000F0DFFA78
:1062A4002100C9B2042000F0E8FA10BD80B54FF413
:1062B40080415FF0006000F08BFB4FF4A06000F0C1
:1062C4004FFB01BD1CB5042100226C462000FDF7E4
:1062D4002DFF0121DFF83003FDF7EDFF10208DF8CD
:1062E400030003208DF80200C8488188ADF800102F
:1062F40069460068FDF76AFFC5488188ADF800105B
:1063040069460068FDF762FFC2488188ADF8001055
:1063140069460068FDF75AFF13BD70B5FFF77DFFAE
:10632400FFF7C4FF0120FFF7B3FF72B6FFF7CAFF00
:10633400B74CA08821684861B44DA8882968486191
:10634400B44EB08831680861FFF780FEFEF79AFE0C
:106354005FF4E13000F060FB00F0A8FB0120AE49DF
:106364000860A08821680861A88829680861B08845
:106374003168486162B670BDA7480178890713D5B2
:10638400A6490A68521C0A600978C90704D5A049BD
:106394008A8809684A6103E09D498A8809680A6114
:1063A400016831F0020101600178C9061AD59C49DF
:1063B40009689C4A116095498A8809684A6101788C
:1063C400490607D593498A8809680A61016831F04A
:1063D40040010160016831F010010160016851F071
:1063E400200101600178890612D58E4909681431AB
:1063F4008B4A126891420BD2016831F0200101608E
:10640400824881880068016182488188006841610E
:1064140070472DE9F843844C0F21200000F06FFCF5
:1064240000280BD00F21200000F077FC0021002071
:1064340000F064FD5FF4E13000F0EEFA7B4C20786C
:10644400022802D02078032835D10020ADF80000BE
:10645400002540F20C662700DFF8D481C1463200E3
:1064640039004846FFF76AFD402020700020A080D4
:10647400002060800020C4F808066A46B8F80410BA
:1064840018F1080000F06CFD002814D000206949C0
:1064940081F80701B8F80410BDF800004044083042
:1064A400FFF7B1F9010089B2002904D05A490A68FA
:1064B40052F004020A60584C2078400712D55E4D11
:1064C4002978681C00F032FD206830F0100020604C
:1064D40095F80601042805D11420FEF7A9FD5748B4
:1064E40057490860BDE8F1832DE9F843554C94F809
:1064F4003400C00708D503211420FDF759FF0220FA
:10650400FFF782FEFEF756FF434D2868002807D5A3
:10651400286820F00040286094F86400FFF7BDFA72
:1065240094F8340080070CD594F8620094F8611054
:10653400884206D22000FEF7AEFF002801D00820D2
:10654400606394F83400000704D52000FFF706F8D0
:106554001020606394F83400C00647D5002720005B
:10656400FFF71BF806003000C0B2002805D094F8ED
:10657400620094F86110884236D340206063284852
:106584000068206303211420FDF723FF0120FFF797
:106594003BFE94F8620094F8611088421BD33000EB
:1065A400C0B2012817D194F86600012803D094F8EA
:1065B400650001280FD1244F0120B873286850F0DA
:1065C400400028605FF00E0814F13A09424649463B
:1065D4003800FFF7B3FC94F83800002806D0286888
:1065E40050F01000286001E00220606394F8340049
:1065F400400607D5206B3C3009490968884201D21E
:1066040001206063BDE8F183000230009C73000840
:106614008C73000894730008740F00207C0F002012
:10662400800F0020780F0020003801402006002051
:10663400140000202C0C0020340D00200400FA0566
:106644000CED00E03C0E0020EC0E0020DFF8C4123C
:10665400086850F001000860DFF8BC221368DFF816
:10666400BC02034013600B68DFF8B40203400B6004
:10667400086830F480200860106830F4FE00106070
:106684005FF41F00DFF89C1208607047DFF8841283
:106694000A6832F480320A600A6832F480220A609E
:1066A4000200B2F5803F03D0B2F5802F05D009E097
:1066B4000A6852F480320A6004E00A6852F4A022A4
:1066C4000A60FFE7704738B50020009000240025D9
:1066D400312000F0FCF805000098401C0090009860
:1066E400B0F5A06F03D02800C0B20028F0D031204C
:1066F40000F0EDF8002801D0012000E00020C0B235
:1067040032BD30B40023844D2C6834F47C1451EA37
:10671400000214432C6030BC70470100C9B2824AA5
:106724001160704700217C4B1A6892089200024362
:106734001A6070477848006810F00C007047002118
:10674400754B1A6832F0F00202431A607047002158
:10675400714B1A6832F4E06202431A6070470021F8
:106764006D4B1A6832F4605252EAC0021A607047E4
:106774006E49086070470021674B1A6832F4404242
:1067840002431A6070472DE9F04F010000220025F2
:1067940000200026604FD7F800C01CF00C0C6346A4
:1067A400002B04D0042B05D0082B06D023E0614A2B
:1067B4000A6022E0604A0A601FE03A6812F470122C
:1067C4003B6813F480331800920C921C15000028C7
:1067D40004D15A4A02FB05F20A600BE03A689203BC
:1067E40004D5574A02FB05F20A6003E0524A02FB51
:1067F40005F20A6001E04F4A0A603C6814F0F004B4
:106804002409DFF8409119F804E00A6832FA0EF21C
:106814004A603B6813F4E0631B0A19F803804A6872
:1068240032FA08F28A603A6812F46052D20A19F80D
:106834000290D1F804A03AFA09FAC1F80CA03F6812
:1068440017F44047BF0BDFF800A11AF807A0D1F8EE
:106854000CB0BBFBFAFBC1F810B0BDE8F08F0A0026
:10686400D2B2002A04D0394A13680343136003E008
:10687400364A13688343136070470A00D2B2002A71
:1068840004D0334A13680343136003E0304A1368A7
:106894008343136070470A00D2B2002A04D02D4A01
:1068A40013680343136003E02A4A136883431360A5
:1068B40070470A00D2B2002A04D0274A136803435F
:1068C400136003E0244A136883431360704730B4B1
:1068D40001000020002300250A00D2B25209D2B2DE
:1068E400012A02D10B48046806E0022A02D11048AA
:1068F400046801E0194804680B00DBB213F01F03BD
:106904002000D840C00701D5012000E00020C0B21B
:1069140030BC704700100240041002400000FFF831
:10692400FFFFF6FE0810024060004242D8004242D7
:106934002010024000127A00001BB70000093D003D
:10694400808D5B0000000020100000201810024021
:106954001C1002400C10024010100240241002408F
:1069640025490143254A11607047F0B400220023F1
:106974000F24C17800291FD02049096811F4E0616F
:10698400D1F5E061090AD1F104052B00CC4045782A
:106994009D408678264035432D012A00184D0678FF
:1069A400AA550125067816F01F06B540154E07783E
:1069B4007F1146F8275009E00121057815F01F05DD
:1069C400A940114D0678761145F82610F0BC7047A1
:1069D4000E4A0A4002430E4B1A607047042805D140
:1069E4000C490A6852F004020A6004E009490A6882
:1069F40032F004020A6070470000FA050CED00E072
:106A040000E400E000E100E080E100E080FFFF1F1F
:106A140008ED00E010E000E010B50400200000F0F4
:106A2400CDF900F054FA0021012000F067FA2000AB
:106A340000F00AFA04490A884FF6FE7002400A8000
:106A440040200249087010BD0008004020060020C4
:106A540010B4020052B2002A05D40A011D4B0400EE
:106A640064B21A5508E00A011B4B040064B214F026
:106A74000F04234403F8042C10BC704710B5040021
:106A8400601EB0F1807F01D301200EE0601E134927
:106A940008600F215FF0FF30FFF7DAFF0020104994
:106AA400086007200F490860002010BD80B504204D
:106AB400FFF794FF0C48FFF7E1FF00200B49086043
:106AC40000200B4908600F215FF0FF30FFF7C0FF83
:106AD40001BD000000E400E018ED00E014E000E077
:106AE40018E000E010E000E0407E0500800F002088
:106AF400840F002010B50400584884420AD10121B3
:106B04004FF48040FFF7C7FE00214FF48040FFF7A9
:106B1400C2FE36E0524884420AD101215FF40030BB
:106B2400FFF7C7FE00215FF40030FFF7C2FE28E044
:106B34004C4884420AD101215FF48020FFF7B9FE5A
:106B440000215FF48020FFF7B4FE1AE04648844237
:106B54000AD101215FF40020FFF7ABFE00215FF4AE
:106B64000020FFF7A6FE0CE04048844209D1012131
:106B74005FF48010FFF79DFE00215FF48010FFF7A3
:106B840098FE10BD2DE9F84F86B004000D000026D4
:106B940000275FF000085FF000095FF0000AA88991
:106BA4000028A346218A4CF6FF700140E88801437F
:106BB400009100982082A1894EF6F3100140AA8822
:106BC4002889024368890243114300910098A081F7
:106BD400A18A4FF6FF400140A88901430091009823
:106BE400A08201A8FFF7CFFD1C48834501D1049979
:106BF40000E00399A089000407D5192000FB01F0E7
:106C04002A685200B0FBF2F206E0192000FB01F002
:106C14002A689200B0FBF2F26420B2FBF0F636016F
:106C240033001B09642000FB1323A089000408D54A
:106C3400D80032306427B0FBF7F010F007000643A9
:106C440007E0180132306427B0FBF7F010F00F00B2
:106C54000643268107B0BDE8F08F000000380140EC
:106C64000044004000480040004C004000500040F8
:106C74000A00D2B2002A04D0828952F400528281DE
:106C840004E083894DF6FF721340838170472DE938
:106C9400F0410023002500275FF0000E0C0040F6B1
:106CA4006A16A4B2B44280460C00E4B26409E4B2A9
:106CB4000E00B6B216F01F065FF0010C1CFA06FCBB
:106CC400012C02D118F10C0806E0022C02D118F1B3
:106CD400100801E018F114081300DBB2002B06D0F1
:106CE400D8F800305CEA0303C8F8003005E0D8F8AF
:106CF400003033EA0C03C8F80030BDE8F08102002C
:106D04000023080080B2B0F5007F1088084201D04B
:106D1400012000E00020C0B270470A0092B2920540
:106D24000A0092B2D24302807047F0B404000027F4
:106D34000020002200260B0040F66A159BB2AB42ED
:106D44000D00EDB26D09EDB20B009BB213F01F0301
:106D54005FF0010C1CFA03F3012D02D1A08903405A
:106D640006E0022D02D1208A034001E0A08A0340FC
:106D74000A0092B2120A92B21CFA02F2208802406D
:106D8400002B03D0002A01D0012000E00020C0B273
:106D9400F0BC704770B4002200240B0040F66A1562
:106DA4009BB2AB420B009BB21B0A01259D402E00F7
:106DB400B6B2F643068070BC7047000030B585B0AB
:106DC4000400042100226D462800FDF7AFF91021CC
:106DD400002201AD2800FDF7A9F95C4D2800FFF75A
:106DE40089FE5B488188ADF8001003218DF80210FC
:106DF40018218DF8031069460068FDF7E7F9554836
:106E04008188ADF8001004218DF8031069460068EC
:106E1400FDF7DCF901940020ADF808000020ADF87E
:106E24000A000020ADF80C000020ADF810000C2082
:106E3400ADF80E0001A92800FFF7A4FE01212800E7
:106E4400FFF716FF05B030BD38B584B004000A2141
:106E5400002201AD2800FDF769F9042100226D46E6
:106E64002800FDF763F9B4F5165F04D140F6AA7063
:106E7400ADF8080003E040F2D660ADF808007720D2
:106E8400ADF804000020ADF80A000020ADF80600BB
:106E9400314D01A9280000F0CFF80122012128007A
:106EA40000F02BF90021280000F018F91E208DF8BD
:106EB400000003208DF8010003208DF8020001205A
:106EC4008DF803006846FFF750FD05B030BD1CB5D2
:106ED400042100226C462000FDF728F925208DF8B6
:106EE400000003208DF8010002208DF8020001202B
:106EF4008DF803006846FFF738FD13BD70B5040034
:106F04000D00124E40F2A5513000FFF743FF22005E
:106F1400D2B240F225513000FFF7B9FE2A00D2B2B6
:106F240040F226613000FFF7B2FE70BD10B40022BB
:106F340000238B4208D2054A12881206FBD5C25C94
:106F4400064C22805B1CF4E710BC704700380140FB
:106F5400A4730008AC730008000800400438014022
:106F64002DE9F04704000D00160000275FF0000A29
:106F7400280080B20B285ADB280080B2390089B27D
:106F84000B31884253DB380080B2205C7E284CD120
:106F9400380080B220444078552846D15FF000087C
:106FA4005FF000090021380080B220448078002876
:106FB40007D0380080B2204490F802A01AF1030AE6
:106FC4000EE0380080B2204490F80AA05FEA0A2A52
:106FD400380080B22044407A50EA0A0A1AF10D0AB5
:106FE400514689B2091F380080B22044801CFDF745
:106FF400CBFB3A0092B2514689B28A1804EB0201E3
:1070040011F8012C12023B009BB2514689B2CB18F5
:1070140004EB030111F8021C0A430100130089B2B6
:107024009BB2994203D000218A467F1CA4E75046B4
:1070340080B2BDE8F087000010B4002204881D4B24
:1070440098420ED0214A90420BD0B0F1804F08D024
:10705400194A904205D0194A904202D0184A9042E7
:1070640004D14FF68F7214404A881443154A904253
:1070740007D0154A904204D04FF6FF421440CA8804
:10708400144304808A8882850A88028598420BD03A
:107094000E4A904208D00E4A904205D00D4A9042C2
:1070A40002D00D4A904201D10A7A028601228282DC
:1070B40010BC7047002C0140000400400008004050
:1070C400000C004000100040001400400034014057
:1070D4000040014000440140004801400A00D2B28F
:1070E400002A04D0028852F00102028004E00388DE
:1070F4004FF6FE721340038070471300DBB2002B7F
:1071040003D083890B43838102E083898B4383818A
:10711400704700007047FEE7FEE7FEE7FEE77047B2
:10712400704770473A480168491C0160006815219E
:10713400B0FBF1F201FB1200002804D135480168CC
:1071440051F0004101603448017809060AD5D0F8AD
:107154000816491DC0F80816D0F80816642901D38A
:1071640002210170704770B52C4C40F2255529005E
:107174002000FFF7DAFD002828D00026290020008F
:10718400FFF708FE2648008823490A7812F0C00F4A
:107194000FD00A7852F080020A708A880A4410726A
:1071A4008A88521C8A808A88B2F5C06F01D1012274
:1071B4000A708988012905D11A490A8852F0010206
:1071C4000A800EE00121184A11800AE04FF4587138
:1071D4002000FFF7AAFD002803D011480088C0054D
:1071E400C00D208810F47C40208070BD0F480188B9
:1071F400C9070BD54FF6FE7101800A490A884FF67C
:10720400FE7002400A8002200349087070470000A3
:10721400800F0020740F0020200600200038014059
:1072240004380140000800402408004010080040D1
:107234007047000080B50E49086850F001000860EE
:107244000C4A13680C48034013600B680B48034056
:107254000B60086830F480200860106830F4FE0089
:1072640010605FF41F000649086000F00BF801BDD0
:1072740000100240041002400000FFF8FFFFF6FE79
:10728400081002407047000010B5074979441831CE
:10729400064C7C44163404E00A68081D11448847EF
:1072A4000146A142F8D110BD0800000028000000EA
:1072B400E3CEFFFF780F0000140000200000000060
:1072C4009BD4FFFF140000006800000000000020B1
:1072D4000000000000F00DF8002801D0FFF7D4FFF3
:1072E400AFF300800020AFF3008000F004F800F05A
:1072F4000CF80120704780B5FFF70FF8FFF73CF852
:10730400FFF787F8FFF7F0F8F8E700F001B800009E
:107314000746384600F002F8FBE7000080B5AFF3FB
:107324000080024A11001820ABBEFBE726000200D1
:107334000000000001020304010203040607080917
:1073440002040608014880470148004739720008D2
:1073540059730008AFF30080AFF30080FFF7BAFF62
:10736400000C014001000000000801401000000072
:1073740000080140E0000000000C01400020000073
:10738400000C0140004000000008014000400000E3
:10739400000C0140008000000008014000010000D2
:1073A4000008014000020000000801400004000041
:1073B400FFF7FEBFFFF7FEBFFFF7FEBFFFF7FEBFFD
:1073C400FFF7FEBFFFF7FEBFFFF7FEBFFFF7FEBFED
:1073D400FFF7FEBFFFF7FEBFFFF7FEBFFFF7FEBFDD
:1073E400FFF7FEBFFFF7FEBFFFF7FEBFFFF7FEBFCD
:1073F400FFF7FEBFFFF7FEBFFFF7FEBFFFF7FEBFBD
:10740400FFF7FEBFFFF7FEBFFFF7FEBFFFF7FEBFAC
:10741400FFF7FEBFFFF7FEBFFFF7FEBFFFF7FEBF9C
:10742400FFF7FEBFFFF7FEBFFFF7FEBFFFF7FEBF8C
:10743400FFF7FEBFFFF7FEBFFFF7FEBFFFF7FEBF7C
:10744400FFF7FEBFFFF7FEBFFFF7FEBFFFF7FEBF6C
:10745400FFF7FEBFFFF7FEBFFFF7FEBFFFF7FEBF5C
:10746400FFF7FEBFFFF7FEBFFFF7FEBFFFF7FEBF4C
:10747400FFF7FEBFFFF7FEBFFFF7FEBFFFF7FEBF3C
:10748400FFF7FEBFFFF7FEBFFFF7FEBFFFF7FEBF2C
:04749400FFF7FEBF41
:040000050800735923
:00000001FF
