:020000040800F2
:10400000601300207D6F00084D6D00084F6D0008A3
:10401000516D0008536D0008556D00080000000048
:10402000000000000000000000000000576D0008C4
:10403000596D0008000000005B6D00085D6D000810
:10404000E96F0008ED6F0008F16F0008F56F0008D8
:10405000F96F0008FD6F0008017000080570000886
:10406000097000080D700008117000081570000834
:10407000197000081D7000082170000825700008E4
:10408000297000082D700008317000083570000894
:10409000696E0008397000083D7000084170000822
:1040A00045700008497000084D7000085170000804
:1040B0005570000859700008256E00085D700008F2
:1040C0006170000865700008697000086D70000874
:1040D000717000089F6D0008757000087970000805
:1040E0007D700008817000088570000889700008E4
:1040F0008D70000891700008957000089970000894
:104100009D700008A1700008A5700008A970000843
:10411000AD700008B1700008B5700008B9700008F3
:10412000BD700008C1700008C5700008C9700008A3
:104130004FF460514843401C0100481E0029FBD148
:10414000704738B5042100226C46200000F072FF51
:1041500010208DF8030003208DF80200DFF8344AA8
:10416000DFF8345AA988A0880143ADF800106946E9
:10417000286800F0AFFFA88829684861A0882168F6
:10418000486131BD38B5FFF7DCFF01F00DF901F0F2
:104190007FFADFF8084A200000F0C6F8002805D0B2
:1041A000DFF8FC0900F0C0F8002806D1200000F07C
:1041B00040F9DFF8EC0900F03CF9DFF8E8492000AD
:1041C00000F02BF8002813D0DFF8DC59288845F2DE
:1041D000555188420CD1DFF8D40900F01EF80028B0
:1041E00006D06888DFF8C819498891EA000F0FD017
:1041F000DFF8B409DFF8B8194988418045F2555114
:104200000180200000F04FF8DFF8A00900F04BF823
:104210000120DFF8A019486231BD2DE9FE4F0400EE
:104220000020002100220025002600270294DFF84C
:104230007889CDF804805FF000094846C0B21028A4
:104240000AD202984946C9B2405C01994A46D2B2A4
:10425000885419F10109F0E70C21019801F026FCBE
:104260008246D8F80C00ADF800005046BDF80010AA
:1042700080B2884211D010250026C34632002900A2
:10428000584600F0D7FEDFF828094088A8F8020059
:1042900045F25550A8F8000001E001200700380061
:1042A000C0B2BDE8FE8F2DE9F047040000250026CE
:1042B00000275FF00108DFF8F0A8D1460020CAF817
:1042C0000C000C21484601F0F1FBCAF80C0001F08B
:1042D00024FC200001F031FC82465046C0B2042884
:1042E0001CD100200500280080B2092810D25046B9
:1042F000C0B204280CD1280080B239F81010280070
:1043000080B214EB400001F042FC82466D1CEAE7EB
:10431000280080B2082801D30120060001F006FC25
:104320003000C0B2BDE8F0872DE9FE4F0400002048
:10433000002100220025002600270294DFF8708863
:10434000CDF804805FF00009484680B21E280AD2EA
:104350000298494689B2405C01994A4692B2885413
:1043600019F10109F0E71C21019801F09FFB824639
:10437000B8F81C00ADF800005046BDF8001080B23F
:10438000884250D01E250026C346320029005846D8
:1043900000F050FE0120A8F80200082088F8040070
:1043A000212088F80500212088F80600212088F8BF
:1043B0000700212088F80800212088F80900212022
:1043C00088F80A00212088F80B00212088F80C00CA
:1043D000522088F80D00522088F80E00522088F8EC
:1043E0000F00522088F81000522088F81100522047
:1043F00088F81200522088F81300522088F8140020
:10440000132088F81500142088F81600132088F867
:104410001700142088F81800132088F819001420B9
:1044200088F81A0001E0012007003800C0B2BDE89A
:10443000FE8F2DE9F04704000025002600275FF0DD
:104440000108DFF86CA7D1460020AAF81C001C2147
:10445000484601F02BFBAAF81C0001F05EFB20008F
:1044600001F06BFB82465046C0B204281CD10020EC
:104470000500280080B2102810D25046C0B204288F
:104480000CD1280080B239F81010280080B214EB4B
:10449000400001F07CFB82466D1CEAE7280080B2F8
:1044A0000F2801D30120060001F040FB3000C0B20C
:1044B000BDE8F0872DE9F84F00240020DFF8F4165E
:1044C0000D0001224A62002281F84A20002281F870
:1044D0004920002281F84820002281F84D20002246
:1044E00081F84E20002281F82820002281F84B20FC
:1044F000DFF8C416002281F84020002281F8412014
:10450000002281F8422001210200D2B22A4482F81E
:104510004010401C02210200D2B22A4482F840100E
:10452000401C03210200D2B22A4482F84010401CF1
:1045300004210200D2B22A4482F84010401C052116
:104540000200D2B22A4482F84010401C8DF80000CC
:104550004FF4C870E8619DF8000085F84900062610
:10456000DFF84C7617F1150815F1160932004146AF
:10457000484601F06BFB5FF0100917F1050A15F1D1
:10458000060B4A465146584601F060FB3879A87040
:1045900002206862BDE8F18F2DE9F0470400002099
:1045A0000125002194F84A20224492F84060DFF867
:1045B00008763200D2B2012A07D047D3032A28D086
:1045C00023D3052A3ED032D340E0522114F12A00F1
:1045D00001F03DF9002811D1012084F828005FF096
:1045E0000E0814F12A0917F1140A424649465046AA
:1045F00001F02CFB002084F84F0005E0012084F836
:104600004F00002084F8280022E0002084F84F00AA
:104610001EE097F840002044837814F116026021D0
:1046200014F12D0001F0B1F984F84F0010E014F1FD
:10463000380197F840002044807801F0FBF984F8B5
:104640004F0005E0002084F84F0001E00020050045
:104650000120FFF76DFD2800C0B2BDE8F087002102
:1046600090F84A20024492F8402090F84F0070479A
:10467000010000220020020091F84930D2B29A4293
:104680000AD20200D2B20A4492F84020022A01D192
:10469000401C01E0401CEEE7C0B270472DE9F84F26
:1046A00004000125002000220021DFF80C6594F8A9
:1046B0004A30234493F8407094F84F803B00DBB2BB
:1046C000012B0BD0C0F01981032B00F0998069D326
:1046D000052B00F0D080C0F0B1800EE14046C0B2A2
:1046E000002848D1002086F8420094F84A00401C77
:1046F00084F84A000E22310014F12A0001F0FAFA7F
:1047000000280DD1DFF8B40400683061012084F87E
:104710004D0094F8490084F84A000120050040E06B
:104720000E2216F12C0114F12A0001F0E3FA002800
:1047300037D1002086F83A00F16BE0694118DFF8C4
:104740007C040068814213D2002086F83B005FF0B1
:104750000E095FF0000A16F12C0B524649465846E6
:1047600000F068FC2000FFF783FF84F84A0018E09F
:104770000020050015E096F8420003280CDB00201D
:1047800086F8420000200500B07B002803D03100ED
:10479000200000F0E5F904E096F84200401C86F89D
:1047A0004200ACE04046C0B200281AD1002086F892
:1047B00042005FF00E0914F12A0A16F12C0B4A464A
:1047C0005146584601F042FA002086F83A0001208E
:1047D00086F83B00DFF8E4030068F0630020050082
:1047E0000DE096F84200401C86F8420096F8420020
:1047F000032804DB002086F84200002005007EE04C
:104800004046C0B200280AD1002086F8420094F841
:104810004A00401C84F84A00012005000DE096F88B
:104820004200C01C86F8420096F84200032804DBD0
:10483000002086F842000020050060E04046C0B23B
:1048400000280AD1002086F8420094F84A00401C53
:1048500084F84A00012005000DE096F84200401C53
:1048600086F8420096F84200032804DB002086F810
:104870004200002005004046C0B200282ED1002092
:1048800086F8420094F84A00401C84F84A00082246
:10489000A11D14F1380001F02DFA002808D10120E3
:1048A00084F84E00012084F84C000120050023E02C
:1048B000082214F10E0114F1380001F01BFA00284F
:1048C00008D1012084F84E00022084F84C00012019
:1048D000050011E0002084F84E000DE096F842003B
:1048E000401C86F8420096F84200032804DB0020B2
:1048F00086F842000020050001E0002005002800A5
:10490000C0B2BDE8F28F2DE9F84F04000D0000237E
:1049100000200021002200260027B4F80580C446AC
:104920001FFA8CFC4FF6FF7EF44509D04046DFF8B5
:1049300080C2BCF802C080B2604501D0002067E0B0
:10494000DFF87C92B4F80300A9F80401002089F88C
:104950000000E0798DF800009DF8000089F806015C
:10496000002089F80101002089F80201A0780028C0
:1049700004D1B4F809A014F10B0B03E0B5F10B0A54
:1049800014F1090B9DF80000042804D0F7280ED07C
:10499000F82818D023E0504680B2002806D14A46B5
:1049A0000021002000F036F889F8000017E050469A
:1049B00080B2002806D14A463221824800F02AF807
:1049C00089F800000BE0504680B2002806D14A4624
:1049D0000C217D4800F01EF889F80000FFE799F8E7
:1049E0000000002811D157EA0600C0B200280CD1FF
:1049F000012089F80101042089F802014A460021BA
:104A0000002000F007F889F8000099F8000080B253
:104A1000BDE8F28F2DE9F84F05000E0017000024C5
:104A20005FF000087E20210089B239444870641C80
:104A30005520210089B239444870641C00202100AF
:104A400089B239444870641C59484188220092B2A6
:104A50003A445170641C408880B2000A210089B237
:104A600039444870641CB7F80401210089B2394404
:104A70004870641CB7F8040180B2000A210089B2B2
:104A800039444870641C1F20210089B239444870A1
:104A9000641C97F80601210089B239444870641CEF
:104AA0000020210089B239444870641C300080B273
:104AB000F5281CDB200080B238444670641C3000AE
:104AC00080B2000A210089B239444870641CB146A2
:104AD0001FFA89F9AA46200080B2384410F1010B70
:104AE0004A465146584601F0B1F834191FE0B14624
:104AF0001FFA89F9AA46200080B2384410F1010B50
:104B00004A465146584601F0A1F8341997F8010178
:104B1000210089B239444870641C97F802012100D1
:104B200089B239444870641C2000401EF87021008E
:104B300089B2891EF81C00F0B9FF0100200080B284
:104B400038444170641C20000A0092B2120A03002B
:104B50009BB23B445A70401C387080B2BDE8F28F63
:104B60002DE9F84304000D002869643013490968F1
:104B700088420CD20E260027DFF83C80C1463A005E
:104B80003100484600F056FA002088F80E00BDE8D3
:104B9000F1830000B86F0008B06F000800E800085B
:104BA00000E0000800F800083C0F002000F00008BA
:104BB0001C0F00203C0E0020D40E0020580F0020B7
:0C4BC000340D002000500008E8F7FF1F33
:10500000523030303120323530313138303020526A
:105010003030312D5343482D4D422D323530313013
:105020003000000000000000000000000000000050
:0250300000007E
:1050340062F30F2262F31F42401810F0030308D0FA
:10504400C91A1FD3DB0748BF00F8012D28BF20F879
:10505400022D130030B414461546103928BF20E938
:105064003C00FAD8490728BF20E90C0048BF40F8A3
:10507400042D890028BF20F8022D48BF00F8012D17
:1050840030BC7047C91818BF00F8012DCB0728BFE2
:1050940000F8012D704730B4002513E050F8042BBC
:1050A400D30744BFA9F101039A18091F042942F840
:1050B400045BFAD213468C0744BF15809B1CC907B6
:1050C40048BF1D7050F8041B0029E7D130BC70475D
:1050D400F0B500220023002400250026002791F8C3
:1050E40003C01CF00F0C91F803E05FEACE6E02D50A
:1050F4008A7852EA0C0C0A7812062AD00268160042
:1051040000221400082C23D25FF0010E1EFA04F2D0
:1051140015000A882A401300AB4217D1A2001500DB
:105124000F22AA401700BE431CFA05F21643CA78A0
:10513400282A04D11EFA04FEC0F814E006E0CA7856
:10514400482A03D11EFA04FEC0F810E0641CD9E713
:1051540006600A88B2F5807F2EDB426816000022C2
:105164001400082C27D25FF0010E14F108021EFA75
:1051740002F215000A882A401300AB4219D1A2009A
:1051840015000F22AA401700BE431CFA05F216436D
:10519400CA78282A04D114F108021EFA02F24261E4
:1051A400CA78482A05D114F108021EFA02FEC0F892
:1051B40010E0641CD5E74660F0BDF0B40022002383
:1051C40000250027002802D51D4C246801E01D4C51
:1051D4002468C0F3034586B210F4401CBCF5401F9C
:1051E40007D134F07064174A176837F07067176096
:1051F40011E0C20206D50322AA4013009C4354F0D6
:10520400706408E00200520DD2B2120116FA02F2E2
:10521400944354F070640A00D2B2002A06D002000B
:10522400520DD2B2120116FA02F21443002802D52A
:10523400034A146001E0034A1460F0BC70470000A4
:105244001C0001400400014070B504000D00DFF8AB
:10525400A06330684169B0880143306841616000EF
:1052640010F07F0000F0DFFD2800C0B200F0DBFD8D
:1052740030680169B08801433068016170BD70B560
:1052840004000025DA4E30684169B0880143306873
:105294004161600050F08000C0B200F0C4FD002005
:1052A40000F0C1FD31680A69B1880A4331680A61B6
:1052B400C0B270BDF8B504000D0000262000C0B2D5
:1052C400FFF7DDFF07002F433900C9B22000C0B249
:1052D400FFF7BAFFF1BDF8B504000D000026200069
:1052E400C0B2FFF7CCFF0700AF433900C9B22000BA
:1052F400C0B2FFF7A9FFF1BD2DE9F04104000D0094
:105304000027BB4E30684169B08801433068416171
:10531400922000F088FD5FF000084046C0B22900EA
:10532400C9B2491E884208DA922000F07CFD414649
:10533400C9B2605418F10108EFE7002000F073FDD2
:105344004146C9B2605430680169B088014330688D
:105354000161BDE8F0812DE9F04104000D00002752
:10536400A34E30684169B08801433068416112201E
:1053740000F059FD5FF0000840462900C0B2C9B2F0
:10538400884207D24046C0B2205C00F04CFD18F1C0
:105394000108F1E730680169B088014330680161B0
:1053A400BDE8F08170B500240025924E3068416953
:1053B400B0880143306841614FF4807000F060FDB3
:1053C40030680169B0880143306801614FF40070AE
:1053D40000F056FD40211520FFF736FF1520FFF79A
:1053E4004EFF01000800C0B2402801D10120050091
:1053F4002800C0B270BD2DE9F04700255FF0000A17
:1054040000265FF000090027DFF8EC81002088F80F
:105414004200D8F84440240900210120FFF714FF7A
:1054240080210A20FFF710FF7F210420FFF70CFFE3
:1054340098F8410041280CDB402118F10100FFF7E6
:105444008AFF19F1400998F84100403888F8410072
:1054540010E098F8411018F10100FFF77CFF98F86C
:10546400410010EB090998F8411098F84100091A15
:1054740088F841107F210420FFF7E6FE98F8001019
:1054840011F00F010120FFF7DFFE98F800000C284F
:1054940003D180210D20FFF70DFF98F8410000286B
:1054A40034D00420FFF7EBFE060070072AD598F8E5
:1054B400410031280EDB30214846C0B24044401C34
:1054C400FFF749FF19F1300998F84100303888F89E
:1054D400410012E098F841104846C0B24044401CD4
:1054E400FFF739FF98F8410010EB090998F84110CB
:1054F40098F84100091A88F8411004210420FFF7A4
:10550400A3FECAE7B007C8D5002004007F21042009
:10551400FFF79AFE002C57D0012000F0B1FC0420C4
:10552400FFF7ADFE0600B00705D50C2005000020EE
:1055340088F8420048E0B00611D50A20FFF79FFE24
:1055440007003900C9B298F842004044401CFFF7F4
:10555400D3FE98F84200381888F8420034E0700608
:105564001CD5300715D50A20FFF789FE070039003E
:10557400C9B298F842004044401CFFF7BDFE082120
:105584000420FFF761FE98F84200381888F84200BA
:1055940018E098F80000042814D115E0F00611D59D
:1055A4000A20FFF76CFE07003900C9B298F84200E0
:1055B4004044401CFFF7A0FE98F84200381888F8D1
:1055C400420001E0641EA5E700210120FFF73CFE34
:1055D40098F800000C2803D180210D20FFF77BFEF2
:1055E400002C01D1032005002800C0B2BDE8F087DB
:1055F400A06F0008986F00088C0E00202DE9F04180
:1056040005000E0017009846069C2800C0B200282A
:1056140003D008210820FFF75EFE3000C0B2002846
:1056240004D080211220FFF745FE03E080211220E0
:10563400FFF751FE3800C0B2002804D080211320A7
:10564400FFF738FE03E080211320FFF744FE58EAF9
:105654000411C9B20D20FFF7F7FDBDE8F08130B4A5
:105664000EE00268436802440830DC0744BFA9F135
:105674000104E31852F8045B43F8045B091FF9D1F1
:1056840050F8041B0029ECD130BC704780B50321CD
:105694001420FFF720FE3D211120FFF7D5FD002146
:1056A4002A20FFF7D1FDFF212D20FFF7CDFDFF219B
:1056B4002C20FFF7C9FD10210B20FFF7C5FD0021A9
:1056C4000120FFF7C1FD002002BD010000220B787C
:1056D4004878434088784340C87843400879434039
:1056E4001800C0B2002801D1002000E0112070474A
:1056F400F8B504000D000026DFF8A8737C700120C3
:1057040087F841004FF4FA7078640C203870002058
:1057140000900723002200210120FFF76FFFFFF70D
:105724006AFE0100C9B2002908D1B9782980298804
:10573400090229802A8879780A432A80C0B2F2BDF6
:105744002DE9FC4704000D005FF000080027DFF896
:1057540054933800C0B2484444707F1C2020390060
:10576400C9B2494448707F1C89F8417042F21070F4
:10577400C9F844000C2089F80000002000900023A0
:10578400002200210020FFF739FFFFF734FE060056
:105794003000C0B2002811D119F101084046FFF7CA
:1057A40094FF06003000C0B2002807D15FF005095D
:1057B400AA464A464146504600F046FA3000C0B276
:1057C400BDE8F6872DE9FE4F04000D001600002702
:1057D4005FF0000ADFF8CC825046C0B24044447007
:1057E4001AF1010A70205146C9B2414448701AF1B5
:1057F400010A5FF0050901955046C0B2404410F11A
:10580400010B4A460199584600F01EFA1AF1050A9E
:1058140088F841A042F21070C8F844000C2088F8BF
:105824000000002000900023012201210020FFF746
:10583400E5FEFFF7E0FD0100C9B2002902D198F8A6
:1058440001103170C0B2BDE8FE8F2DE9FE430400A3
:105854000D00002721002800C0B2FFF749FF060011
:105864003000C0B2002840F08A802088B0F5406F34
:1058740000F085802088032800F081800A2100221E
:105884006F463800FFF7D4FB69469320FFF758FFB3
:1058940006003000C0B2002871D114F10D0269462F
:1058A4009320FFF78FFF06003000C0B2002866D1B6
:1058B4000420A0709DF80000882857D103270DF11B
:1058C400010814F103093A004146484600F0BCF9C6
:1058D40069469520FFF734FF06003000C0B2002867
:1058E4004DD114F10D0269469520FFF76BFF0600B8
:1058F4003000C0B2002842D10720A0709DF80000FB
:10590400882829D103270DF1010814F106093A006A
:105914004146484600F098F969469720FFF710FF82
:1059240006003000C0B2002829D114F10D026946E6
:105934009720FFF747FF06003000C0B200281ED1B1
:105944000A20A0700427E84614F109093A004146E8
:10595400484600F079F912E00427E84614F10609F4
:105964003A004146484600F06FF908E00427E8464B
:1059740014F103093A004146484600F065F9300045
:10598400C0B2BDE8FE832DE9F34F85B015001E00BB
:10599400002700208DF804000024DFF808819DF81A
:1059A40018002100C9B241444870641C2000C0B2F0
:1059B40040444670641C5FF0060903952000C0B2A1
:1059C400404410F1010A4A460399504600F03CF95C
:1059D400A41D5FF0040A059802902000C0B2404460
:1059E40010F1010B52460299584600F02DF9241D7E
:1059F40088F841404FF4FA60C8F844000E2088F853
:105A04000000002000900023002200210020FFF766
:105A1400F5FDFFF7F0FC0820FFF731FC0100080753
:105A240001D40F2007003800C0B207B0BDE8F08FE2
:105A34002DE9FC4705000E005FF000090024DFF8A3
:105A4400648030202100C9B241444870641C2000A5
:105A5400C0B240444570641C88F8414042F2107062
:105A6400C8F844000C2088F80000002000900023AF
:105A7400012201210020FFF7C1FDFFF7BCFC070054
:105A84003800C0B2002809D15FF0100918F10108EC
:105A9400B2464A464146504600F0D6F83800C0B2F5
:105AA400BDE8F6878C0E002070B4030000220024A9
:105AB40000264FF6FF7000258D4214D25A5D5040E7
:105AC40000221600082E0CD2C20706D580B20200AE
:105AD40048F2084090EA520001E080B24008761C87
:105AE400F0E76D1CE8E780B2C04380B270BC704739
:105AF4000021DFF808311A6812F0380202431A60F4
:105B04007047DFF8F8100A6832F010020A600A6879
:105B140002430A607047DFF8E800DFF8E81001602C
:105B2400DFF8E41001607047DFF8E000016851F02D
:105B340080010160704770B5040004265FF43020D2
:105B440000F06AF805002800C0B204281AD1DFF872
:105B5400BC60306850F002003060DFF8B4000460CC
:105B6400306850F0400030605FF4302000F054F8AA
:105B740005002800C0B2052804D0316841F6FD7044
:105B8400014031602800C0B270BDF8B504000D00BA
:105B940004274FF4005000F03FF806003000C0B274
:105BA400042814D1DFF86470386850F001003860BC
:105BB40025804FF4005000F02FF806003000C0B2EA
:105BC400052804D0396841F6FE7001403960300080
:105BD400C0B2F2BD04210F480268D20701D50120EA
:105BE4000AE00268520701D5022005E00068C006F9
:105BF40001D5032000E00420C0B270470020024019
:105C04000420024023016745AB89EFCD10200240F8
:105C1400142002400C20024070B504000425FFF754
:105C2400D9FF06003000C0B2012806D1002C04D0F0
:105C3400FFF7D0FF0600641EF4E7002C01D1052015
:105C440006003000C0B270BD62B38B0708D0521E8C
:105C540011F8013B00F8013B00F024808B07F6D1DA
:105C6400830740F0208000BF103A07D330B4B1E876
:105C74003810103AA0E83810F9D230BC530724BFCA
:105C8400B1E80810A0E8081044BF51F8043B40F8FC
:105C9400043BD20724BF31F8022B20F8022B44BF67
:105CA4000B7803707047121F17D35B0009D151F8AA
:105CB400043B20F8023B1B0C121F20F8023BF6D2D7
:105CC4000BE051F8043B00F8013B1B0A20F8023BAF
:105CD4001B0C121F00F8013BF3D238BF121D521ED9
:105CE40024BF11F8013B00F8013BF8D870470000CD
:105CF4000300002013F0030F09D0521E22BF13F833
:105D0400010B11F801CBB0EB0C00F3D0704711F08C
:105D1400030F14D1121F22BF53F8040B51F804CB04
:105D24006045F7D0121D0AD200BA9CFA8CFCB0EB85
:105D34000C0038BF6FF0000088BF01207047521E6E
:105D440022BF13F8010B11F801CBB0EB0C00F6D015
:105D5400521C08BF1046704710B586B012210022AD
:105D640001AC2000FFF764F9042100226C462000F6
:105D7400FFF75EF903208DF8020010208DF8030070
:105D84003B4CA088ADF8000069462068FFF7A0F9F5
:105D940020680169A088014320680161354CA0880E
:105DA400ADF8000069462068FFF792F920680169A0
:105DB400A0880143206801612F488188ADF8001054
:105DC40018218DF8031069460068FFF781F92B4C00
:105DD4000021200000F081F80020ADF804004FF409
:105DE4008270ADF806000020ADF808000020ADF880
:105DF4000A000020ADF80C004FF40070ADF80E005E
:105E04002020ADF810000020ADF812000720ADF8F6
:105E1400140001A9200000F041F80121200000F045
:105E24005CF806B010BD70B504000025134E0121C6
:105E3400300000F065F8012803D1300000F05EF86E
:105E440005000221300000F05BF80028F9D02100A1
:105E5400C9B289B2300000F04FF80121300000F0DF
:105E64004FF80028F9D0300000F048F8C0B270BDF7
:105E7400A06F0008986F0008A86F00080030014068
:105E840000220100481E002906D0BE210A0011008C
:105E94004A1E0029FBD1F4E77047000030B4002308
:105EA400048814F441540D884A8815438A8815439C
:105EB400CA8815430A8915434A8915438A891543B3
:105EC400CA8915432C430480858B4FF2FF72154019
:105ED40085830A8A028230BC70470A00D2B2002A43
:105EE40004D0028852F04002028004E003884FF696
:105EF400BF72134003807047818170478089704767
:105F0400020000231089084201D0012000E0002093
:105F1400C0B270474FF460514843401C0100481E12
:105F24000029FBD1704738B5002400F019FA5FF45A
:105F3400803000F035FA00F050FA05002800C0B2B5
:105F440001282AD1002000F084FA002000F091FA00
:105F54004FF4806000F085FA002000F096FA0020EB
:105F640000F090FA0220FFF7C3FD1020FFF7C9FDEF
:105F74005FF480115FF4803000F04DFA012000F0EE
:105F840056FA392000F02DFB0028FAD0022000F048
:105F940053FA00F059FA0828FBD131BD10B50400BA
:105FA4002100C9B241F21D0000F0E3FA2100C9B298
:105FB400DFF8640300F0EBFA10BD80B54FF48041C4
:105FC4005FF0006000F08EFB4FF4A06000F052FB25
:105FD40001BD1CB5042100226C462000FFF728F8FF
:105FE4000121DFF83803FFF7E8F810208DF80300EB
:105FF40003208DF80200CA488188ADF80010694674
:106004000068FFF765F8C7488188ADF80010694655
:106014000068FFF75DF8C4488188ADF80010694650
:106024000068FFF755F813BD70B5FFF77CFFFFF765
:10603400C4FF0120FFF7B2FF72B6FFF7CAFFB94CE5
:10604400A08821684861B64DA88829684861B64E81
:10605400B08831680861FFF77FFEFEF791F85FF4BE
:10606400E13000F063FB00F0A7FB0120AF490860BA
:10607400A08821680861A88829680861B088316807
:10608400486162B670BDA9480178890713D5A8494B
:106094000A68521C0A600978C90704D5A1498A888C
:1060A40009684A6103E09F498A8809680A610168AE
:1060B40031F0020101600178C9061AD59D490968C9
:1060C4009D4A116096498A8809684A61017849069F
:1060D40007D595498A8809680A61016831F0400149
:1060E4000160016831F010010160016851F0200184
:1060F40001600178890612D58F49096814318D4AE7
:10610400126891420BD2016831F020010160844889
:106114008188006801618448818800684161704712
:106124002DE9F84F854C0F21200000F06EFC00286B
:106134000BD00F21200000F076FC0021002000F09D
:1061440063FD5FF4E13000F0F1FADFF8F4B19BF89D
:106154000000022803D09BF8000003283ED100244D
:10616400002540F20C694E465F46DFF8D881C246EE
:10617400320039005046FFF767FD5FF0000A5246CF
:1061840049465846FEF754FFB8F802000B2825DBB1
:10619400B8F802004044C788B8F80210091F18F183
:1061A4000A00FFF781FC06003800310080B289B292
:1061B400884213D100240020634981F80701B8F80C
:1061C400021018F10800FEF79CFB0100C9B2002977
:1061D40004D056490A6852F004020A60534C2078ED
:1061E400400712D5594D2978681C00F025FD206818
:1061F40030F01000206095F80601042805D1142021
:10620400FDF794FF524853490860BDE8F18F2DE92A
:10621400F041514C94F82400C00708D50321142000
:10622400FFF748F80220FFF775FEFEF741F994F8EE
:10623400240080070CD594F84A0094F84910884249
:1062440006D22000FEF7A6F9002801D008206062DB
:1062540094F82400000704D52000FEF7FEF910206E
:10626400606294F82400C00648D500262000FEF79A
:1062740013FA05002800C0B2002805D094F84A009B
:1062840094F84910884237D3402060622948006856
:10629400206203211420FFF71EF80120FFF73AFEC5
:1062A40094F84A0094F8491088421BD32800C0B2DD
:1062B400012817D194F84E00012803D094F84D001A
:1062C40001280FD1254E0120B0730E2714F12A089E
:1062D4003A0041463000FFF7B7FC1448016851F01A
:1062E4004001016094F82800002807D00F48016895
:1062F40051F01001016001E00220606294F8240072
:10630400400607D5206A3C300A490968884201D210
:1063140001206062BDE8F081040002000002300048
:10632400D06F0008C06F0008C86F00084C0F002031
:10633400540F0020580F0020500F00200038014057
:1063440020060020140000202C0C0020340D002016
:106354000400FA050CED00E03C0E0020D40E0020F1
:10636400DFF8C412086850F001000860DFF8BC22AE
:106374001368DFF8BC02034013600B68DFF8B40253
:1063840003400B60086830F480200860106830F423
:10639400FE0010605FF41F00DFF89C120860704775
:1063A400DFF884120A6832F480320A600A6832F430
:1063B40080220A600200B2F5803F03D0B2F5802F3C
:1063C40005D009E00A6852F480320A6004E00A68E1
:1063D40052F4A0220A60FFE7704738B5002000900D
:1063E40000240025312000F0FCF805000098401C32
:1063F40000900098B0F5A06F03D02800C0B2002828
:10640400F0D0312000F0EDF8002801D0012000E0A8
:106414000020C0B232BD30B40023844D2C6834F463
:106424007C1451EA000214432C6030BC7047010014
:10643400C9B2824A1160704700217C4B1A689208E5
:10644400920002431A6070477848006810F00C000C
:1064540070470021754B1A6832F0F00202431A604B
:1064640070470021714B1A6832F4E06202431A60EB
:10647400704700216D4B1A6832F4605252EAC00230
:106484001A6070476E49086070470021674B1A68AC
:1064940032F4404202431A6070472DE9F04F010084
:1064A4000022002500200026604FD7F800C01CF011
:1064B4000C0C6346002B04D0042B05D0082B06D00B
:1064C40023E0614A0A6022E0604A0A601FE03A68F9
:1064D40012F470123B6813F480331800920C921C6F
:1064E4001500002804D15A4A02FB05F20A600BE0A9
:1064F4003A68920304D5574A02FB05F20A6003E0A6
:10650400524A02FB05F20A6001E04F4A0A603C6805
:1065140014F0F0042409DFF8409119F804E00A6843
:1065240032FA0EF24A603B6813F4E0631B0A19F86E
:1065340003804A6832FA08F28A603A6812F46052B8
:10654400D20A19F80290D1F804A03AFA09FAC1F86B
:106554000CA03F6817F44047BF0BDFF800A11AF8FE
:1065640007A0D1F80CB0BBFBFAFBC1F810B0BDE832
:10657400F08F0A00D2B2002A04D0394A13680343C8
:10658400136003E0364A13688343136070470A00BC
:10659400D2B2002A04D0334A13680343136003E0E1
:1065A400304A13688343136070470A00D2B2002A4A
:1065B40004D02D4A13680343136003E02A4A136886
:1065C4008343136070470A00D2B2002A04D0274ADA
:1065D40013680343136003E0244A1368834313607E
:1065E400704730B401000020002300250A00D2B215
:1065F4005209D2B2012A02D10B48046806E0022AE9
:1066040002D11048046801E0194804680B00DBB2A9
:1066140013F01F032000D840C00701D5012000E07B
:106624000020C0B230BC7047001002400410024089
:106634000000FFF8FFFFF6FE08100240600042422F
:10664400D80042422010024000127A00001BB7001A
:1066540000093D00808D5B00000000201000002038
:10666400181002401C1002400C100240101002408E
:106674002410024025490143254A11607047F0B4B3
:10668400002200230F24C17800291FD02049096863
:1066940011F4E061D1F5E061090AD1F104052B00A0
:1066A400CC4045789D408678264035432D012A000C
:1066B400184D0678AA550125067816F01F06B54030
:1066C400154E07787F1146F8275009E00121057817
:1066D40015F01F05A940114D0678761145F82610CE
:1066E400F0BC70470E4A0A4002430E4B1A607047D2
:1066F400042805D10C490A6852F004020A6004E037
:1067040009490A6832F004020A6070470000FA0579
:106714000CED00E000E400E000E100E080E100E0D6
:1067240080FFFF1F08ED00E010E000E010B504005A
:10673400200000F0C9F900F050FA0021012000F017
:1067440063FA200000F006FA03490A884FF6FE7047
:1067540002400A8010BD00BF0008004010B40200CF
:1067640052B2002A05D40A011D4B040064B21A5522
:1067740008E00A011B4B040064B214F00F04234424
:1067840003F8042C10BC704710B50400601EB0F16F
:10679400807F01D301200EE0601E134908600F21A1
:1067A4005FF0FF30FFF7DAFF002010490860072090
:1067B4000F490860002010BD80B50420FFF798FF42
:1067C4000C48FFF7E1FF00200B49086000200B494B
:1067D40008600F215FF0FF30FFF7C0FF01BD00002C
:1067E40000E400E018ED00E014E000E018E000E050
:1067F40010E000E0407E0500580F00205C0F0020F0
:1068040010B50400584884420AD101214FF4804055
:10681400FFF7CBFE00214FF48040FFF7C6FE36E0C1
:10682400524884420AD101215FF40030FFF7CBFEC5
:1068340000215FF40030FFF7C6FE28E04C48844294
:106844000AD101215FF48020FFF7BDFE00215FF42F
:106854008020FFF7B8FE1AE0464884420AD101219D
:106864005FF40020FFF7AFFE00215FF40020FFF784
:10687400AAFE0CE04048844209D101215FF4801053
:10688400FFF7A1FE00215FF48010FFF79CFE10BD0E
:106894002DE9F84F86B004000D00002600275FF0B4
:1068A40000085FF000095FF0000AA8890028A346E9
:1068B400218A4CF6FF700140E8880143009100985A
:1068C4002082A1894EF6F3100140AA882889024348
:1068D40068890243114300910098A081A18A4FF670
:1068E400FF400140A889014300910098A08201A8BB
:1068F400FFF7D3FD1C48834501D1049900E00399B7
:10690400A089000407D5192000FB01F02A68520071
:10691400B0FBF2F206E0192000FB01F02A689200B5
:10692400B0FBF2F26420B2FBF0F6360133001B092F
:10693400642000FB1323A089000408D5D80032305A
:106944006427B0FBF7F010F00700064307E01801D6
:1069540032306427B0FBF7F010F00F0006432681B5
:1069640007B0BDE8F08F000000380140004400404B
:1069740000480040004C0040005000400A00D2B2E1
:10698400002A04D0828952F40052828104E083896F
:106994004DF6FF721340838170472DE9F0410023C7
:1069A400002500275FF0000E0C0040F66A16A4B222
:1069B400B44280460C00E4B26409E4B20E00B6B2FC
:1069C40016F01F065FF0010C1CFA06FC012C02D124
:1069D40018F10C0806E0022C02D118F1100801E0AD
:1069E40018F114081300DBB2002B06D0D8F80030DD
:1069F4005CEA0303C8F8003005E0D8F8003033EA55
:106A04000C03C8F80030BDE8F08102000023080040
:106A140080B2B0F5007F1088084201D0012000E068
:106A24000020C0B270470A0092B292050A0092B2E6
:106A3400D24302807047F0B40400002700200022F3
:106A440000260B0040F66A159BB2AB420D00EDB276
:106A54006D09EDB20B009BB213F01F035FF0010C44
:106A64001CFA03F3012D02D1A089034006E0022D94
:106A740002D1208A034001E0A08A03400A0092B2B6
:106A8400120A92B21CFA02F220880240002B03D0B0
:106A9400002A01D0012000E00020C0B2F0BC704701
:106AA40070B4002200240B0040F66A159BB2AB427E
:106AB4000B009BB21B0A01259D402E00B6B2F64383
:106AC400068070BC7047000030B585B00400042116
:106AD40000226D462800FEF7ABFA1021002201AD1A
:106AE4002800FEF7A5FA5C4D2800FFF789FE5B48F5
:106AF4008188ADF8001003218DF8021018218DF85B
:106B0400031069460068FEF7E3FA55488188ADF83A
:106B1400001004218DF8031069460068FEF7D8FAC6
:106B240001940020ADF808000020ADF80A00002010
:106B3400ADF80C000020ADF810000C20ADF80E00EC
:106B440001A92800FFF7A4FE01212800FFF716FF82
:106B540005B030BD38B584B004000A21002201AD6F
:106B64002800FEF765FA042100226D462800FEF78E
:106B74005FFAB4F5165F04D140F6AA70ADF80800C8
:106B840003E040F2D660ADF808007720ADF80400C9
:106B94000020ADF80A000020ADF80600314D01A92F
:106BA400280000F063F801220121280000F0BFF85A
:106BB4000021280000F0ACF81E208DF8000003200E
:106BC4008DF8010003208DF8020001208DF80300E8
:106BD4006846FFF754FD05B030BD1CB50421002202
:106BE4006C462000FEF724FA25208DF800000320CF
:106BF4008DF8010002208DF8020001208DF80300B9
:106C04006846FFF73CFD13BD70B504000D00124E3D
:106C140040F2A5513000FFF743FF2200D2B240F208
:106C240025513000FFF7B9FE2A00D2B240F22661A6
:106C34003000FFF7B2FE70BD10B4002200238B4277
:106C440008D2054A12881206FBD5C25C064C228083
:106C54005B1CF4E710BC704700380140D86F000893
:106C6400E06F0008000800400438014010B400221E
:106C740004881D4B98420ED0214A90420BD0B0F1AB
:106C8400804F08D0194A904205D0194A904202D048
:106C9400184A904204D14FF68F7214404A88144324
:106CA400154A904207D0154A904204D04FF6FF424D
:106CB4001440CA88144304808A8882850A8802851D
:106CC40098420BD00E4A904208D00E4A904205D00A
:106CD4000D4A904202D00D4A904201D10A7A0286AE
:106CE4000122828210BC7047002C01400004004045
:106CF40000080040000C0040001000400014004058
:106D0400003401400040014000440140004801407B
:106D14000A00D2B2002A04D0028852F00102028092
:106D240004E003884FF6FE7213400380704713009B
:106D3400DBB2002B03D083890B43838102E0838978
:106D44008B438381704700007047FEE7FEE7FEE750
:106D5400FEE77047704770473A480168491C016074
:106D640000683321B0FBF1F201FB1200002804D1CA
:106D74003548016851F00201016034480178090680
:106D84000AD5D0F80816491DC0F80816D0F8081618
:106D9400642901D302210170704770B52C4C40F274
:106DA400255529002000FFF746FE002828D000269C
:106DB40029002000FFF774FE2648008823490A783A
:106DC40012F0C00F0FD00A7852F080020A708A883D
:106DD4000A4410728A88521C8A808A88B2F5C06F6D
:106DE40001D101220A708988012905D11A490A882A
:106DF40052F001020A800EE00121184A11800AE0D3
:106E04004FF458712000FFF716FE002803D01148F4
:106E14000088C005C00D208810F47C40208070BD1F
:106E24000F480188C9070BD54FF6FE7101800A4946
:106E34000A884FF6FE7002400A8002200349087057
:106E440070470000580F00204C0F0020200600203F
:106E54000038014004380140000800402408004084
:106E6400100800407047000080B50E49086850F0D3
:106E7400010008600C4A13680C48034013600B6857
:106E84000B4803400B60086830F4802008601068E9
:106E940030F4FE0010605FF41F000649086000F043
:106EA4000BF801BD00100240041002400000FFF87E
:106EB400FFFFF6FE081002407047000010B50749B6
:106EC40079441831064C7C44163404E00A68081DE1
:106ED400114488470146A142F8D110BD08000000C2
:106EE40028000000B3E1FFFF4C0F00001400002055
:106EF400000000006BE7FFFF1400000068000000C2
:106F0400000000200000000000F00DF8002801D06F
:106F1400FFF7D4FFAFF300800020AFF3008000F050
:106F240004F800F00CF80120704780B5FFF77CF8F6
:106F3400FFF7A9F8FFF7F4F8FFF769F9F8E700F0AD
:106F440001B800000746384600F002F8FBE70000ED
:106F540080B5AFF30080024A11001820ABBEFBE7F6
:106F640026000200000000000102030401020304E1
:106F7400060708090204060801488047014800473B
:106F84006D6E00088D6F0008AFF30080AFF30080D2
:106F9400FFF7BAFF000C01400100000000080140A7
:106FA4001000000000080140E0000000000C014057
:106FB40000200000000C01400040000000080140D7
:106FC40000400000000C0140008000000008014067
:106FD4000001000000080140000200000008014018
:106FE40000040000FFF7FEBFFFF7FEBFFFF7FEBF80
:106FF400FFF7FEBFFFF7FEBFFFF7FEBFFFF7FEBFC1
:10700400FFF7FEBFFFF7FEBFFFF7FEBFFFF7FEBFB0
:10701400FFF7FEBFFFF7FEBFFFF7FEBFFFF7FEBFA0
:10702400FFF7FEBFFFF7FEBFFFF7FEBFFFF7FEBF90
:10703400FFF7FEBFFFF7FEBFFFF7FEBFFFF7FEBF80
:10704400FFF7FEBFFFF7FEBFFFF7FEBFFFF7FEBF70
:10705400FFF7FEBFFFF7FEBFFFF7FEBFFFF7FEBF60
:10706400FFF7FEBFFFF7FEBFFFF7FEBFFFF7FEBF50
:10707400FFF7FEBFFFF7FEBFFFF7FEBFFFF7FEBF40
:10708400FFF7FEBFFFF7FEBFFFF7FEBFFFF7FEBF30
:10709400FFF7FEBFFFF7FEBFFFF7FEBFFFF7FEBF20
:1070A400FFF7FEBFFFF7FEBFFFF7FEBFFFF7FEBF10
:1070B400FFF7FEBFFFF7FEBFFFF7FEBFFFF7FEBF00
:0870C400FFF7FEBFFFF7FEBF5E
:0400000508006F8DF3
:00000001FF
