:020000040800F2
:10400000B80A0020756B0008C5690008C769000878
:10401000C9690008CB690008CD69000800000000EC
:10402000000000000000000000000000CF69000850
:10403000D169000800000000D3690008D5690008B4
:10404000E16B0008E56B0008E96B0008ED6B000808
:10405000F16B0008F56B0008F96B0008FD6B0008B8
:10406000016C0008056C0008096C00080D6C000864
:10407000116C0008156C0008196C00081D6C000814
:10408000216C0008256C0008296C00082D6C0008C4
:10409000616A0008316C0008356C0008396C000852
:1040A0003D6C0008416C0008456C0008496C000834
:1040B0004D6C0008516C0008556C0008596C0008E4
:1040C0005D6C0008616C0008656C0008696C000894
:1040D0006D6C0008176A0008716C0008756C0008A8
:1040E000796C00087D6C0008816C0008856C000804
:1040F000896C00088D6C0008916C0008956C0008B4
:10410000996C00089D6C0008A16C0008A56C000863
:10411000A96C0008AD6C0008B16C0008B56C000813
:10412000B96C0008BD6C0008C16C0008C56C0008C3
:1041300070B504000D00DFF8A06330684169B088F5
:10414000014330684161600010F07F0000F07FFAA9
:104150002800C0B200F07BFA30680169B0880143E2
:104160003068016170BD70B504000025DA4E30681A
:104170004169B088014330684161600050F08000BF
:10418000C0B200F064FA002000F061FA31680A69F8
:10419000B1880A4331680A61C0B270BDF8B5040045
:1041A0000D0000262000C0B2FFF7DDFF07002F43FF
:1041B0003900C9B22000C0B2FFF7BAFFF1BDF8B5AF
:1041C00004000D0000262000C0B2FFF7CCFF07005E
:1041D000AF433900C9B22000C0B2FFF7A9FFF1BD5B
:1041E0002DE9F04104000D000027BB4E3068416905
:1041F000B088014330684161922000F028FA5FF0F6
:1042000000084046C0B22900C9B2491E884208DAF7
:10421000922000F01CFA4146C9B2605418F101081E
:10422000EFE7002000F013FA4146C9B2605430684D
:104230000169B088014330680161BDE8F0812DE972
:10424000F04104000D000027A34E30684169B0889A
:10425000014330684161122000F0F9F95FF0000875
:1042600040462900C0B2C9B2884207D24046C0B217
:10427000205C00F0ECF918F10108F1E73068016901
:10428000B088014330680161BDE8F08170B5002459
:104290000025924E30684169B08801433068416121
:1042A0004FF4807000F000FA30680169B088014373
:1042B000306801614FF4007000F0F6F940211520DC
:1042C000FFF736FF1520FFF74EFF01000800C0B2D0
:1042D000402801D1012005002800C0B270BD2DE9A1
:1042E000F04700255FF0000A00265FF00009002774
:1042F000DFF8EC81002088F84200D8F84440240917
:1043000000210120FFF714FF80210A20FFF710FF92
:104310007F210420FFF70CFF98F8410041280CDBB7
:10432000402118F10100FFF78AFF19F1400998F8C0
:104330004100403888F8410010E098F8411018F129
:104340000100FFF77CFF98F8410010EB090998F88D
:10435000411098F84100091A88F841107F21042083
:10436000FFF7E6FE98F8001011F00F010120FFF7AB
:10437000DFFE98F800000C2803D180210D20FFF704
:104380000DFF98F84100002834D00420FFF7EBFE21
:10439000060070072AD598F8410031280EDB30213D
:1043A0004846C0B24044401CFFF749FF19F13009AC
:1043B00098F84100303888F8410012E098F8411030
:1043C0004846C0B24044401CFFF739FF98F841000E
:1043D00010EB090998F8411098F84100091A88F87B
:1043E000411004210420FFF7A3FECAE7B007C8D597
:1043F000002004007F210420FFF79AFE002C57D0F4
:10440000012000F051F90420FFF7ADFE0600B007CF
:1044100005D50C200500002088F8420048E0B006D1
:1044200011D50A20FFF79FFE07003900C9B298F89E
:1044300042004044401CFFF7D3FE98F84200381871
:1044400088F8420034E070061CD5300715D50A20E4
:10445000FFF789FE07003900C9B298F842004044CE
:10446000401CFFF7BDFE08210420FFF761FE98F80D
:104470004200381888F8420018E098F80000042834
:1044800014D115E0F00611D50A20FFF76CFE0700E5
:104490003900C9B298F842004044401CFFF7A0FE22
:1044A00098F84200381888F8420001E0641EA5E739
:1044B00000210120FFF73CFE98F800000C2803D1F2
:1044C00080210D20FFF77BFE002C01D10320050089
:1044D0002800C0B2BDE8F087986B0008906B000818
:1044E000200600202DE9F04105000E001700984637
:1044F000069C2800C0B2002803D008210820FFF73E
:104500005EFE3000C0B2002804D080211220FFF7E8
:1045100045FE03E080211220FFF751FE3800C0B2B3
:10452000002804D080211320FFF738FE03E080210B
:104530001320FFF744FE58EA0411C9B20D20FFF71B
:10454000F7FDBDE8F08130B4002513E050F8042BEE
:10455000D30744BFA9F101039A18091F042942F89F
:10456000045BFAD213468C0744BF15809B1CC90715
:1045700048BF1D7050F8041B0029E7D130BC7047BC
:1045800010B586B01221002201AC200000F0B0F876
:10459000042100226C46200000F0AAF803208DF8C8
:1045A000020010208DF803003B4CA088ADF80000FD
:1045B0006946206800F0D0F820680169A0880143AE
:1045C00020680161354CA088ADF80000694620687C
:1045D00000F0C2F820680169A088014320680161E9
:1045E0002F488188ADF8001018218DF80310694616
:1045F000006800F0B1F82B4C0021200000F079FD9C
:104600000020ADF804004FF48270ADF806000020E1
:10461000ADF808000020ADF80A000020ADF80C004D
:104620004FF40070ADF80E002020ADF8100000200F
:10463000ADF812000720ADF8140001A9200000F029
:1046400039FD0121200000F054FD06B010BD70B509
:1046500004000025134E0121300000F05DFD01280B
:1046600003D1300000F056FD05000221300000F0BB
:1046700053FD0028F9D02100C9B289B2300000F002
:1046800047FD0121300000F047FD0028F9D030003F
:1046900000F040FDC0B270BD986B0008906B000840
:1046A000A06B00080030014000220100481E0029D4
:1046B00006D0BE210A0011004A1E0029FBD1F4E7F2
:1046C000704730B40EE00268436802440830DC07EB
:1046D00044BFA9F10104E31852F8045B43F8045BFA
:1046E000091FF9D150F8041B0029ECD130BC7047E8
:1046F00062F30F2262F31F42401810F0030308D048
:10470000C91A1FD3DB0748BF00F8012D28BF20F8C6
:10471000022D130030B414461546103928BF20E985
:104720003C00FAD8490728BF20E90C0048BF40F8F0
:10473000042D890028BF20F8022D48BF00F8012D64
:1047400030BC7047C91818BF00F8012DCB0728BF2F
:1047500000F8012D70470000F0B50022002300246E
:1047600000250026002791F803C01CF00F0C91F8DB
:1047700003E05FEACE6E02D58A7852EA0C0C0A7822
:1047800012062AD00268160000221400082C23D238
:104790005FF0010E1EFA04F215000A882A40130089
:1047A000AB4217D1A20015000F22AA401700BE434A
:1047B0001CFA05F21643CA78282A04D11EFA04FE10
:1047C000C0F814E006E0CA78482A03D11EFA04FEB5
:1047D000C0F810E0641CD9E706600A88B2F5807F53
:1047E0002EDB4268160000221400082C27D25FF04E
:1047F000010E14F108021EFA02F215000A882A407E
:104800001300AB4219D1A20015000F22AA401700D5
:10481000BE431CFA05F21643CA78282A04D114F1C3
:1048200008021EFA02F24261CA78482A05D114F140
:1048300008021EFA02FEC0F810E0641CD5E74660CC
:10484000F0BDF0B40022002300250027002802D587
:104850001D4C246801E01D4C2468C0F3034586B25A
:1048600010F4401CBCF5401F07D134F07064174AA7
:10487000176837F07067176011E0C20206D503228F
:10488000AA4013009C4354F0706408E00200520DEB
:10489000D2B2120116FA02F2944354F070640A0084
:1048A000D2B2002A06D00200520DD2B2120116FA7C
:1048B00002F21443002802D5034A146001E0034ABF
:1048C0001460F0BC704700001C000140040001406F
:10500000523030303120323530313138303020526A
:105010003030312D5343482D4D422D323530313013
:105020003000000000000000000000000000000050
:0250300000007E
:10508000523030312D5343482D4D422D3235303181
:1050900030300000000000000000000000000000B0
:1050A0000000000000000000000000000000000000
:0250B0000000FE
:1050B40030B40023048814F441540D884A881543FD
:1050C4008A881543CA8815430A8915434A891543B2
:1050D4008A891543CA8915432C430480858B4FF272
:1050E400FF72154085830A8A028230BC70470A0029
:1050F400D2B2002A04D0028852F04002028004E0B6
:1051040003884FF6BF721340038070478181704754
:1051140080897047020000231089084201D00120D1
:1051240000E00020C0B2704780B503211420FFF7CF
:1051340044F83D211120FEF7F9FF00212A20FEF753
:10514400F5FFFF212D20FEF7F1FFFF212C20FEF7B4
:10515400EDFF10210B20FEF7E9FF00210120FEF7EF
:10516400E5FF002002BD010000220B78487843408F
:1051740088784340C8784340087943401800C0B257
:10518400002801D1002000E011207047F8B5040088
:105194000D000026DFF8D4727C70012087F84100EE
:1051A4004FF4FA7078640C203870002000900723C4
:1051B400002200210120FFF793F9FFF78EF8010088
:1051C400C9B2002908D1B97829802988090229801F
:1051D4002A8879780A432A80C0B2F2BD2DE9FC47B7
:1051E40004000D005FF000080027DFF8809238000B
:1051F400C0B2484444707F1C20203900C9B24944DD
:1052040048707F1C89F8417042F21070C9F844005C
:105214000C2089F8000000200090002300220021C7
:105224000020FFF75DF9FFF758F806003000C0B220
:10523400002811D119F101084046FFF794FF060038
:105244003000C0B2002807D15FF00509AA464A46DB
:105254004146504600F00CF93000C0B2BDE8F68774
:105264002DE9FE4F04000D00160000275FF0000A30
:10527400DFF8F8815046C0B2404444701AF1010A84
:1052840070205146C9B2414448701AF1010A5FF0D6
:10529400050901955046C0B2404410F1010B4A463D
:1052A4000199584600F0E4F81AF1050A88F841A07B
:1052B40042F21070C8F844000C2088F80000002066
:1052C40000900023012201210020FFF709F9FFF7D4
:1052D40004F80100C9B2002902D198F80110317014
:1052E400C0B2BDE8FE8F2DE9FE4304000D00002787
:1052F40021002800C0B2FFF749FF06003000C0B209
:10530400002840F08A802088B0F5406F00F0858046
:105314002088032800F081800A2100226F4638008B
:10532400FFF7E4F969469320FFF758FF06003000C1
:10533400C0B2002871D114F10D0269469320FFF721
:105344008FFF06003000C0B2002866D10420A07090
:105354009DF80000882857D103270DF1010814F1A6
:1053640003093A004146484600F082F86946952010
:10537400FFF734FF06003000C0B200284DD114F10D
:105384000D0269469520FFF76BFF06003000C0B29E
:10539400002842D10720A0709DF80000882829D158
:1053A40003270DF1010814F106093A004146484665
:1053B40000F05EF869469720FFF710FF0600300002
:1053C400C0B2002829D114F10D0269469720FFF7D5
:1053D40047FF06003000C0B200281ED10A20A0708A
:1053E4000427E84614F109093A004146484600F00A
:1053F4003FF812E00427E84614F106093A00414652
:10540400484600F035F808E00427E84614F103099B
:105414003A004146484600F02BF83000C0B2BDE8DF
:10542400FE8338B500240025DFF8400050212A000F
:10543400D2B2024451706D1C00212A00D2B202443F
:1054440051706D1C80F8415042F2107141640C217E
:105454000170002000900023012201210020FFF7A9
:105464003FF8FEF73AFF2000C0B232BD200600200C
:1054740062B38B0708D0521E11F8013B00F8013BC0
:1054840000F024808B07F6D1830740F0208000BF12
:10549400103A07D330B4B1E83810103AA0E8381005
:1054A400F9D230BC530724BFB1E80810A0E80810B3
:1054B40044BF51F8043B40F8043BD20724BF31F801
:1054C400022B20F8022B44BF0B7803707047121F85
:1054D40017D35B0009D151F8043B20F8023B1B0CA5
:1054E400121F20F8023BF6D20BE051F8043B00F8FF
:1054F400013B1B0A20F8023B1B0C121F00F8013B66
:10550400F3D238BF121D521E24BF11F8013B00F81C
:10551400013BF8D870470000DFF8C412086850F067
:1055240001000860DFF8BC221368DFF8BC02034006
:1055340013600B68DFF8B40203400B60086830F4B2
:1055440080200860106830F4FE0010605FF41F00D3
:10555400DFF89C1208607047DFF884120A6832F49E
:1055640080320A600A6832F480220A600200B2F5CE
:10557400803F03D0B2F5802F05D009E00A6852F4C9
:1055840080320A6004E00A6852F4A0220A60FFE74D
:10559400704738B50020009000240025312000F029
:1055A400FCF805000098401C00900098B0F5A06F2E
:1055B40003D02800C0B20028F0D0312000F0EDF86C
:1055C400002801D0012000E00020C0B232BD30B478
:1055D4000023844D2C6834F47C1451EA00021443F3
:1055E4002C6030BC70470100C9B2824A1160704718
:1055F40000217C4B1A689208920002431A6070479B
:105604007848006810F00C0070470021754B1A6848
:1056140032F0F00202431A6070470021714B1A689D
:1056240032F4E06202431A60704700216D4B1A683D
:1056340032F4605252EAC0021A6070476E49086040
:1056440070470021674B1A6832F4404202431A60E3
:1056540070472DE9F04F01000022002500200026AC
:10566400604FD7F800C01CF00C0C6346002B04D02C
:10567400042B05D0082B06D023E0614A0A6022E0FF
:10568400604A0A601FE03A6812F470123B6813F42F
:1056940080331800920C921C1500002804D15A4A39
:1056A40002FB05F20A600BE03A68920304D5574AFC
:1056B40002FB05F20A6003E0524A02FB05F20A60AB
:1056C40001E04F4A0A603C6814F0F0042409DFF852
:1056D400409119F804E00A6832FA0EF24A603B6815
:1056E40013F4E0631B0A19F803804A6832FA08F2DB
:1056F4008A603A6812F46052D20A19F80290D1F81A
:1057040004A03AFA09FAC1F80CA03F6817F440471C
:10571400BF0BDFF800A11AF807A0D1F80CB0BBFB4F
:10572400FAFBC1F810B0BDE8F08F0A00D2B2002A2B
:1057340004D0394A13680343136003E0364A1368FC
:105744008343136070470A00D2B2002A04D0334A5C
:1057540013680343136003E0304A13688343136000
:1057640070470A00D2B2002A04D02D4A13680343BA
:10577400136003E02A4A13688343136070470A00E6
:10578400D2B2002A04D0274A13680343136003E00B
:10579400244A136883431360704730B40100002027
:1057A400002300250A00D2B25209D2B2012A02D142
:1057B4000B48046806E0022A02D11048046801E09C
:1057C400194804680B00DBB213F01F032000D84013
:1057D400C00701D5012000E00020C0B230BC7047F2
:1057E40000100240041002400000FFF8FFFFF6FE24
:1057F4000810024060004242D80042422010024099
:1058040000127A00001BB70000093D00808D5B0088
:105814000000002010000020181002401C1002405C
:105824000C10024010100240241002404FF460514A
:105834004843401C0100481E0029FBD1704710B5A5
:10584400FEF722FDFFF770FC03211420FEF7A4FCF1
:10585400DFF8CC42200000F0DDF800280CD0DFF89F
:10586400C402008845F25551884205D1DFF8B802D8
:1058740000F0D0F800280BD145F25550DFF8A412FF
:105884000880200000F00AF9DFF89C0200F006F915
:105894000021DFF89802427DDFF894020079821833
:1058A40010BDDFF89002017911F00F01052902D132
:1058B4004FF4165009E0007910F00F000B2802D1C4
:1058C4005FF4E13001E04FF4164070472DE9F041F8
:1058D4000026DFF8604222000C21002000F030F99D
:1058E40005002800C0B200280ED0002600270A2197
:1058F400200000F041FA618902000B0092B29BB2D1
:105904009A4201D0002215002800C0B200282FD1ED
:105914000C260027A0463A0031004046FEF7E6FE7A
:105924000220207001206080207910F0F00050F0F7
:1059340007002071207910F0EF002071207950F0D9
:1059440080002071207950F020002071207910F01F
:10595400BF002071607950F001006071607910F02F
:10596400010060710120A0710020207200F01FF876
:105974000020207245F25550DFF8BC110A8882429B
:105984000AD14A88237913F00F039BB29A4203D1B8
:105994008A8863889A4208D00880207910F00F0022
:1059A40048806088888000F00BFABDE8F08138B543
:1059B4000024DFF88051002068810A21280000F0CB
:1059C400DBF968812A000C21002000F080F9C0B2C4
:1059D40032BD10B5002403211420FEF7DDFB0A209C
:1059E400FFF724FF52215548FFF77DFC00280AD118
:1059F40050480079C0F30010C0B2002801D1FFF76D
:105A040010FD0120040003211420FEF7D6FB200022
:105A1400C0B210BD2DE9FE4F040000200021002279
:105A24000025002600270294DFF8F880CDF80480D2
:105A34005FF000094846C0B210280AD202984946CD
:105A4400C9B2405C01994A46D2B2885419F101099D
:105A5400F0E70C21019800F08FF98246D8F80C0089
:105A6400ADF800005046BDF8001080B288420FD057
:105A740010250026C346320029005846FEF736FE9C
:105A84000120A8F8020045F25550A8F8000001E0F2
:105A9400012007003800C0B2BDE8FE8F2DE9F047B1
:105AA40004000025002600275FF00108DFF874A039
:105AB400D1460020CAF80C000C21484600F05CF9DD
:105AC400CAF80C0000F0A5F9200000F0B2F98246F3
:105AD4005046C0B204281CD100200500280080B222
:105AE400092810D25046C0B204280CD1280080B234
:105AF40039F81010280080B214EB400000F0C3F90C
:105B040082466D1CEAE7280080B2082801D30120F0
:105B1400060000F087F93000C0B2BDE8F08700004D
:105B240000F800087806002000F000080050000883
:105B34008050000888060020940600206806002093
:105B44002DE9F04104000D0016005FF00108002764
:105B5400280080B2002860D000F004FA002801D1A7
:105B6400002080464046C0B2002808D0A02000F0A3
:105B74008EFA00F06BFA002801D1002080464046DE
:105B8400C0B2002808D0200080B2000AC0B200F0E1
:105B94007EFA00F05BFA80464046C0B2002806D088
:105BA4002000C0B200F073FA00F050FA804640467C
:105BB400C0B2002805D000F0D5F9002801D100209A
:105BC40080464046C0B2002808D0A12000F05FFA09
:105BD40000F03CFA002801D1002080466D1E4046AA
:105BE400C0B2002817D0002007003800290080B276
:105BF40089B2884208D200F06FFA390089B2705431
:105C040000F0F4F97F1CF0E700F066FA390089B27D
:105C1400705400F003FA00F0D1F94046C0B2BDE878
:105C2400F0812DE9F04104000D00160000275FF01B
:105C34000108280080B2002842D000F093F900281F
:105C440001D1002080464046C0B2002808D0A020E0
:105C540000F01DFA00F0FAF9002801D10020804676
:105C64004046C0B2002808D0200080B2000AC0B26A
:105C740000F00DFA00F0EAF980464046C0B2002870
:105C840006D02000C0B200F002FA00F0DFF980462E
:105C9400002007003800290080B289B288420DD262
:105CA4004046C0B2002807D0380080B2305C00F013
:105CB400EEF900F0CBF980467F1CEBE700F07EF9AB
:105CC400052000F046F94046C0B2BDE8F0812DE958
:105CD400F04704000D00160000275FF000085FF095
:105CE400000A200010F01F0F1BD014F01F00D0F189
:105CF400200007002800390080B289B2884200D20F
:105D04002F00404680B206EB0002390089B218EB3E
:105D1400040080B2FFF785FF8146ED1B17EB0808EE
:105D240001E05FF001094846C0B200281FD02800F6
:105D340080B200281BD0202007002800390080B240
:105D440089B2884200D22F00404680B206EB00029E
:105D5400390089B218EB040080B2FFF762FF814674
:105D6400ED1B17EB08084846C0B20028DFD14846AF
:105D7400C0B2BDE8F087000070B403000022002424
:105D840000264FF6FF7000258D4214D25A5D504014
:105D940000221600082E0CD2C20706D580B20200DB
:105DA40048F2084090EA520001E080B24008761CB4
:105DB400F0E76D1CE8E780B2C04380B270BC704766
:105DC40038B50024084D0020E88006212800FFF79C
:105DD400D3FFE8802A00082141F6F870FFF777FF27
:105DE400C0B232BD00000000940600200021DFF89C
:105DF40008311A6812F0380202431A607047DFF85B
:105E0400F8100A6832F010020A600A6802430A6055
:105E14007047DFF8E800DFF8E8100160DFF8E4100D
:105E240001607047DFF8E000016851F08001016013
:105E3400704770B5040004265FF4302000F06AF85F
:105E440005002800C0B204281AD1DFF8BC6030680D
:105E540050F002003060DFF8B4000460306850F0A5
:105E6400400030605FF4302000F054F80500280052
:105E7400C0B2052804D0316841F6FD70014031609C
:105E84002800C0B270BDF8B504000D0004274FF41B
:105E9400005000F03FF806003000C0B2042814D1CE
:105EA400DFF86470386850F00100386025804FF4E2
:105EB400005000F02FF806003000C0B2052804D0CE
:105EC400396841F6FE70014039603000C0B2F2BD5D
:105ED40004210F480268D20701D501200AE00268B4
:105EE400520701D5022005E00068C00601D5032051
:105EF40000E00420C0B270470020024004200240A9
:105F040023016745AB89EFCD1020024014200240E5
:105F14000C20024070B504000425FFF7D9FF0600E9
:105F24003000C0B2012806D1002C04D0FFF7D0FF06
:105F34000600641EF4E7002C01D1052006003000A1
:105F4400C0B270BD0020C8210800411E0028FBD14A
:105F540070474FF460514843401C0100481E00291B
:105F6400FBD1704710B5704CA088216808616F4858
:105F7400818800680161FFF7E5FF206880680028D8
:105F840001D1012000E00020217911F00101084233
:105F940001D0002011E0A08821684861FFF7D2FFFA
:105FA40020688068A188084201D0002005E0A0880C
:105FB40021684861FFF7C6FF012010BD38B55B4C6E
:105FC400A08821684861FFF7BDFF574DA88829685C
:105FD4004861FFF7B7FFA08821680861FFF7B2FFA7
:105FE400A88829680861FFF7ADFF31BD10B54F4C93
:105FF400A08821684861FFF7A5FF4B4881880068A5
:106004004161FFF79FFFA08821680861FFF79AFFAD
:10601400A08821684861FFF795FF10BD10B5434C77
:10602400A08821684861FFF78DFF3F488188006898
:106034000161FFF787FFA08821680861FFF782FFED
:10604400A08821684861FFF77DFF10BD38B5374C43
:10605400A08821684861FFF775FF334DA888296837
:106064000861FFF76FFFA08821680861FFF76AFFE6
:1060740028688068A988084204D0A08821684861FB
:10608400002003E0A08821684861012032BD70B57A
:10609400040008252800451EC0B2002817D0234E4E
:1060A400B08831684861200604D51F48818800689B
:1060B400016103E01C48818800684161FFF742FFE9
:1060C400B08831680861FFF73DFF6400E2E71748D4
:1060D40081880068416170BDF8B508240025124E1E
:1060E400B088316808612000441EC0B2002813D073
:1060F4006D000E4FB88839684861FFF723FFB888F0
:1061040039680861FFF71EFF30688068B18808426B
:10611400E9D055F00105E6E704488188006841614B
:106124002800C0B2F2BD0000A86B0008B06B0008E4
:1061340010B50400584884420AD101214FF480402C
:10614400FFF70FFB00214FF48040FFF70AFB36E016
:10615400524884420AD101215FF40030FFF70FFB5B
:1061640000215FF40030FFF70AFB28E04C4884422A
:106174000AD101215FF48020FFF701FB00215FF4C5
:106184008020FFF7FCFA1AE0464884420AD1012134
:106194005FF40020FFF7F3FA00215FF40020FFF71B
:1061A400EEFA0CE04048844209D101215FF48010EA
:1061B400FFF7E5FA00215FF48010FFF7E0FA10BD65
:1061C4002DE9F84F86B004000D00002600275FF08B
:1061D40000085FF000095FF0000AA8890028A346C0
:1061E400218A4CF6FF700140E88801430091009831
:1061F4002082A1894EF6F3100140AA88288902431F
:1062040068890243114300910098A081A18A4FF646
:10621400FF400140A889014300910098A08201A891
:10622400FFF717FA1C48834501D1049900E003994C
:10623400A089000407D5192000FB01F02A68520048
:10624400B0FBF2F206E0192000FB01F02A6892008C
:10625400B0FBF2F26420B2FBF0F6360133001B0906
:10626400642000FB1323A089000408D5D800323031
:106274006427B0FBF7F010F00700064307E01801AD
:1062840032306427B0FBF7F010F00F00064326818C
:1062940007B0BDE8F08F0000003801400044004022
:1062A40000480040004C0040005000400A00D2B2B8
:1062B400002A04D0828952F40052828104E0838946
:1062C4004DF6FF721340838170472DE9F04100239E
:1062D400002500275FF0000E0C0040F66A16A4B2F9
:1062E400B44280460C00E4B26409E4B20E00B6B2D3
:1062F40016F01F065FF0010C1CFA06FC012C02D1FB
:1063040018F10C0806E0022C02D118F1100801E083
:1063140018F114081300DBB2002B06D0D8F80030B3
:106324005CEA0303C8F8003005E0D8F8003033EA2B
:106334000C03C8F80030BDE8F08102000023080017
:1063440080B2B0F5007F1088084201D0012000E03F
:106354000020C0B270470A0092B292050A0092B2BD
:10636400D24302807047F0B40400002700200022CA
:1063740000260B0040F66A159BB2AB420D00EDB24D
:106384006D09EDB20B009BB213F01F035FF0010C1B
:106394001CFA03F3012D02D1A089034006E0022D6B
:1063A40002D1208A034001E0A08A03400A0092B28D
:1063B400120A92B21CFA02F220880240002B03D087
:1063C400002A01D0012000E00020C0B2F0BC7047D8
:1063D40070B4002200240B0040F66A159BB2AB4255
:1063E4000B009BB21B0A01259D402E00B6B2F6435A
:1063F400068070BC7047000038B50024FFF78CF8A5
:106404005FF48030FFF7A8F8FFF7C3F80500280011
:10641400C0B201282AD10020FFF7F7F80020FFF7C7
:1064240004F94FF48060FFF7F8F80020FFF709F94A
:106434000020FFF703F90220FFF7D8FC1020FFF734
:10644400DEFC5FF480115FF48030FFF7C0F80120B8
:10645400FFF7C9F83920FFF7A0F90028FAD0022085
:10646400FFF7C6F8FFF7CCF80828FBD131BD10B50B
:1064740004002100C9B245F21D00FFF756F92100BE
:10648400C9B25FF40030FFF75EF910BD80B54FF478
:1064940080415FF0006000F023F94FF4A06000F049
:1064A400E7F801BD1CB5042100226C462000FEF76C
:1064B4001DF901216448FEF7C2F910208DF803008C
:1064C40003208DF8020061488188ADF80010694608
:1064D4000068FEF73FF95E488188ADF80010694610
:1064E4000068FEF737F95B488188ADF8001069460B
:1064F4000068FEF72FF913BD70B5FFF77DFFFFF7B6
:10650400C5FF0120FFF7B3FF72B6FFF7CBFF504C76
:10651400A088216848614D4DA888296848614D4E7E
:10652400B08831684861FFF7D1F9FEF727F8FFF723
:1065340086F900F027F9012047490860A0882168FE
:106544000861A88829680861B0883168086162B662
:1065540070BD41490878800713D540480268521C31
:1065640002600078C00704D5394882880068426117
:1065740003E03748828800680261086830F002004E
:1065840008600878C00619D5086830F01000086063
:10659400086850F02000086031480068314A1060F3
:1065A4002A488288006842612F48407910F001002F
:1065B400002803D027488288006842610878800652
:1065C40012D5284800681430254A126890420BD22C
:1065D400086830F0200008601C4881880068016168
:1065E4001C48818800680161704710B51F4C0F2159
:1065F4002000FFF7A2FE002811D00F212000FFF792
:10660400AAFE0021002000F03EF9FFF74AF900F04D
:10661400DDF800F021F90021012000F034F910BD6B
:1066240010B50D4C207840060BD5206830F04000A2
:106634002060FFF7CEF9002803D0206850F0100046
:10664400206010BD0000000000023000C86B00088C
:10665400B86B0008C06B00089C060020A40600204C
:10666400A8060020A006002088060020003801406B
:1066740025490143254A11607047F0B400220023E4
:106684000F24C17800291FD02049096811F4E06162
:10669400D1F5E061090AD1F104052B00CC4045781D
:1066A4009D408678264035432D012A00184D0678F2
:1066B400AA550125067816F01F06B540154E077831
:1066C4007F1146F8275009E00121057815F01F05D0
:1066D400A940114D0678761145F82610F0BC704794
:1066E4000E4A0A4002430E4B1A607047042805D133
:1066F4000C490A6852F004020A6004E009490A6875
:1067040032F004020A6070470000FA050CED00E064
:1067140000E400E000E100E080E100E080FFFF1F12
:1067240008ED00E010E000E010B4020052B2002ACC
:1067340005D40A011D4B040064B21A5508E00A018D
:106744001B4B040064B214F00F04234403F8042C1C
:1067540010BC704710B50400601EB0F1807F01D3F7
:1067640001200EE0601E134908600F215FF0FF3026
:10677400FFF7DAFF00201049086007200F4908607E
:10678400002010BD80B50420FFF7B0FF0C48FFF7D0
:10679400E1FF00200B49086000200B4908600F212D
:1067A4005FF0FF30FFF7C0FF01BD000000E400E030
:1067B40018ED00E014E000E018E000E010E000E074
:1067C400407E0500A8060020AC06002030B585B048
:1067D4000400042100226D462800FDF787FF1021E4
:1067E400002201AD2800FDF781FF334D2800FFF79B
:1067F4009FFC32488188ADF8001003218DF8021007
:1068040018218DF8031069460068FDF7A3FF2C4892
:106814008188ADF8001004218DF8031069460068E2
:10682400FDF798FF01940020ADF808000020ADF8B2
:106834000A000020ADF80C000020ADF810000C2078
:10684400ADF80E0001A92800FFF7BAFC01212800C9
:10685400FFF72CFD05B030BD1CB5042100226C46A9
:106864002000FDF743FF25208DF8000003208DF85C
:10687400010002208DF8020001208DF80300684613
:10688400FFF7FBFE13BD70B504000D000A4E40F285
:10689400A5513000FFF79CFD2200D2B240F22551F1
:1068A4003000FFF712FD2A00D2B240F22661300018
:1068B400FFF70BFD70BD000000380140D06B0008ED
:1068C400D86B000830B40A78002A06D0812A0DD08B
:1068D400822A1ED0842A3DD06AE00200D2B27E2AE7
:1068E40003D181220A707E220A7261E00200D2B2D0
:1068F400552A04D182220A7055224A7208E0020005
:10690400D2B27E2A02D181220A7001E000220A70EA
:106914004EE00200D2B2082A0DDB0200D2B2F52A00
:1069240009DA84220A700200D2B2D21C8A808872E8
:1069340003224A800DE00200D2B2002A07D1842249
:106944000A7000228A80887203224A8001E00022B1
:106954000A702DE04A88531C4B8092B20A4410728C
:106964008A88002A1ED14A880A2A04D10200D2B297
:10697400124B1A801CE04A880B2A19D10F4B1C8831
:106984000500EDB24FF4807202FB05441C801A88A6
:106994000D328A808A8840F201639A4208DB002221
:1069A4000A7005E04A888B889A4201D306220A704D
:1069B4000022C1F8082630BC70470000B006002051
:1069C4007047FEE7FEE7FEE7FEE770477047704753
:1069D4001D480168491C016000683321B0FBF1F2D5
:1069E40001FB1200002804D11848016851F042014B
:1069F40001601748017809060AD5D0F80816491D20
:106A0400C0F80816D0F80816642901D305210170CE
:106A1400704770B50F4C40F2255529002000FFF750
:106A2400A2FC00280BD0002629002000FFF7D0FC90
:106A34000948058806492800C0B2FFF743FF2088AB
:106A440010F47C40208070BDA80600209C06002025
:106A54001400002000380140043801407047000051
:106A640080B50E49086850F0010008600C4A1368AC
:106A74000C48034013600B680B4803400B60086824
:106A840030F480200860106830F4FE0010605FF479
:106A94001F000649086000F00BF801BD0010024019
:106AA400041002400000FFF8FFFFF6FE0810024049
:106AB4007047000010B5074979441831064C7C44EE
:106AC400163404E00A68081D114488470146A142AF
:106AD400F8D110BD080000002800000067DAFFFFAD
:106AE400A00600001400002000000000D3DBFFFF1C
:106AF40014000000680000000000002000000000F6
:106B040000F00DF8002801D0FFF7D4FFAFF30080A8
:106B14000020AFF3008000F004F800F00CF801202E
:106B2400704780B5FFF7E8FCFFF713FDFFF75DFD45
:106B3400FFF776FDF8E700F001B800000746384695
:106B440000F002F8FBE7000080B5AFF30080024AD2
:106B540011001820ABBEFBE7260002000000000075
:106B640001020304010203040607080902040608DB
:106B74000148804701480047656A0008856B0008A2
:106B8400AFF30080AFF30080FFF7BAFF000C0140C1
:106B9400010000000008014010000000000801404E
:106BA400E0000000000C014080000000000C0140E7
:106BB40040000000000801400008000000080140F7
:106BC40000040000000C0140000200000008014025
:106BD400000200000008014000040000FFF7FEBFAF
:106BE400FFF7FEBFFFF7FEBFFFF7FEBFFFF7FEBFD5
:106BF400FFF7FEBFFFF7FEBFFFF7FEBFFFF7FEBFC5
:106C0400FFF7FEBFFFF7FEBFFFF7FEBFFFF7FEBFB4
:106C1400FFF7FEBFFFF7FEBFFFF7FEBFFFF7FEBFA4
:106C2400FFF7FEBFFFF7FEBFFFF7FEBFFFF7FEBF94
:106C3400FFF7FEBFFFF7FEBFFFF7FEBFFFF7FEBF84
:106C4400FFF7FEBFFFF7FEBFFFF7FEBFFFF7FEBF74
:106C5400FFF7FEBFFFF7FEBFFFF7FEBFFFF7FEBF64
:106C6400FFF7FEBFFFF7FEBFFFF7FEBFFFF7FEBF54
:106C7400FFF7FEBFFFF7FEBFFFF7FEBFFFF7FEBF44
:106C8400FFF7FEBFFFF7FEBFFFF7FEBFFFF7FEBF34
:106C9400FFF7FEBFFFF7FEBFFFF7FEBFFFF7FEBF24
:106CA400FFF7FEBFFFF7FEBFFFF7FEBFFFF7FEBF14
:106CB400FFF7FEBFFFF7FEBFFFF7FEBFFFF7FEBF04
:046CC400FFF7FEBF19
:0400000508006B85FF
:00000001FF
