:020000040800F2
:10000000782800205D220008492000084B200008C5
:100010004D2000084F20000851200008000000007B
:100020000000000000000000000000005320000855
:100030005520000800000000572000085920000843
:10004000B9220008BD220008C1220008C52200080C
:10005000C9220008CD220008D1220008D5220008BC
:10006000D9220008DD220008E12200080121000851
:10007000E5220008E9220008ED220008F12200082C
:10008000F5220008F9220008FD22000801230008DB
:1000900005230008092300080D2300081123000888
:1000A00015230008192300081D2300082123000838
:1000B00025230008292300082D23000831230008E8
:1000C00035230008392300083D2300084123000898
:1000D000452300089F200008492300084D230008FD
:1000E0005123000855230008592300085D23000808
:1000F0006123000865230008692300086D230008B8
:100100007123000875230008792300087D23000867
:100110008123000885230008892300088D23000817
:100120009123000895230008992300089D230008C7
:100130004FF460514843401C0100481E0029FBD188
:10014000704710B500F0E8FB5FF4803000F004FC6D
:1001500000F01FFC04002000C0B2012827D10020BD
:1001600000F054FC002000F061FC4FF4806000F0CF
:1001700055FC002000F063FC022000F053FD10202D
:1001800000F059FD5FF480115FF4803000F020FC36
:10019000012000F029FC392000F0FDFC0028FAD0F5
:1001A000022000F026FC00F02CFC0828FBD110BD3A
:1001B00010B504002100C9B244F21D0000F0B3FCE8
:1001C0002100C9B25FF4003000F0BBFC10BD80B567
:1001D00000215FF0006000F04BFE4FF4A06000F0E3
:1001E0000FFE01BD1CB5042100226C46200000F06A
:1001F00063FE0121DFF8B80600F023FF10208DF820
:10020000030003208DF80200DFF8A8068188ADF80E
:1002100000106946006800F09FFEDFF89C068188A8
:10022000ADF800106946006800F096FE13BDF8B501
:10023000FFF787FFFFF7CBFF0120FFF7B9FF72B68B
:10024000FFF7D0FFDFF86C46A08821684861DFF82F
:100250006856A888296848610A20FFF769FFDFF817
:100260005C66300000F0A1FA002818D14FF47A70D3
:10027000FFF75EFFDFF84876380000F096FA0128B5
:1002800007D14FF4FA70FFF753FF300000F0CEFAB9
:1002900005E0300000F0CAFA380000F0C7FA45F275
:1002A0005556DFF820763888B04207D100F0D8F8EC
:1002B000002814D14AF6AA20388010E038884FF67A
:1002C000FF7188420BD14AF6AA20388000F0C8F8A6
:1002D000012804D100F001F9002800D13E805FF42C
:1002E000E13000F0F5FE00F039FF0021012000F0C0
:1002F00046FF00F0A3FFA08821680861A88829684C
:1003000008613888B04204D10120DFF8BC150860CC
:1003100003E04020DFF8B015086062B6F1BDDFF8F9
:10032000A8050178890716D5016831F0020101603E
:10033000DFF898050168491C01600078C00705D501
:10034000DFF8740581880068416104E0DFF8680522
:10035000818800680161704738B50400002072B6DA
:100360002568DFF86C152940B1F1005F0DD1DFF889
:100370006405211D09680160DFF85C1500680860EC
:10038000206880F30888086880470120DFF8381566
:1003900008600020DFF84415086062B631BD80B502
:1003A000DFF82405017849060FD4DFF83015096815
:1003B00029290AD3DFF80C15098845F255529142D4
:1003C00003D1016851F0800101600078000608D572
:1003D000DFF8E004818800680161DFF80405FFF7B9
:1003E000BBFF01BD70B5DFF8FC440721200001F020
:1003F0004EF800280DD00721200001F056F85FF4D8
:10040000E13000F065FE00F0A9FE0021012000F0BF
:10041000B6FEDFF8D444200001F00FF900280BD01D
:100420000121200000F073F840F60C150026320080
:100430002900200000F040FDDFF8B044200001F06A
:10044000FCF800280BD00021200000F060F840F6F6
:100450000C15002632002900200000F02DFD70BD93
:10046000F8B50024DFF88864002500270622DFF8AD
:100470008414300001F0F6F800281CD10620050095
:100480002800C0B2322810DA30780700761C380015
:10049000C0B2202803DB3800C0B2802803DB38005C
:1004A000C0B2002801D16D1CEAE72800C0B2322892
:1004B00001D1012004002000C0B200280AD112227C
:1004C000DFF83414DFF8340401F0CCF8002801D14F
:1004D000012004002000C0B2F2BD00200021DFF89E
:1004E00020340022110089B2802908DA110089B273
:1004F00053F8211011F1010F01D1521CF2E7110044
:1005000089B2802901D101210800C0B270472DE9CC
:10051000FE4F04000D005FF000095FF0000A40F696
:100520000C1B0094DFF8DC8346465A4600993000E5
:1005300001F0CCF8B8F8020040440679B8F802009F
:10054000404441794FF4807000FB0166B8F8021016
:10055000091F18F1080001F023F9070030003900E5
:1005600080B289B2884240F0FD8098F80D008DF885
:1005700008000020B4F80B10ADF80A10BDF80A10FE
:100580004FF6FF72914206D0BDF80A00CD49498866
:10059000884240F008819DF80800012800F0828020
:1005A000022835D0032800F0B680042805D005289D
:1005B0000BD0F72800F0C580D4E00020C7490860C0
:1005C00001F033FAD0494880CCE0BF4800784006BB
:1005D0001DD55FF000090020002198F80F80C04A67
:1005E0004346DBB212EB832A924510D3C748016819
:1005F00051450CD11AF580610160504601F03EFB77
:1006000083465846C0B201F0E8FABF494880A9E0E5
:10061000AD480078400644D500210022002398F818
:10062000080000283DD198F80F008DF80000D8F898
:100630001090D8F814000190A948814531D3B448EE
:10064000019911EB09010268914202D0006800286B
:1006500027D1DFF864A2BAF80400DAF80010486184
:10066000DFF850B2BBF80400DBF800104861019AD3
:1006700018F11801484601F00CFB002807D0019A38
:1006800049469DF8000001F01AFA9F494880BAF8DF
:100690000400DAF800100861BBF80400DBF8001071
:1006A00008615FE0DFF8608201F02BF9A8F8020032
:1006B0002800C0B2012806D1B8F8021018F10400D1
:1006C00000F075FD09E02800C0B2002805D1B8F897
:1006D000021018F1040001F033FB0020A8F802001A
:1006E00079480168490849000160016851F04001FA
:1006F00001604AF6AA207349088001F049FB00F026
:10070000A4FA7B4801F0BAFA7548804908600020D5
:100710007F49086026E0FFF7A3FE012810D101F011
:100720003AF9794948806848016851F080010160D0
:1007300045F255506349088001F02AFB00F08EFA1B
:1007400010E0DFF8C48100200190002000903223E7
:10075000704A9DF8081018F1040001F071F8A8F82B
:100760000200FFE7DFF8A081B8F8020000281AD0E5
:100770002800C0B2012806D1B8F8021018F1040010
:1007800000F015FD09E02800C0B2002805D1B8F836
:10079000021018F1040001F0D3FA0220FFF7C8FCA0
:1007A0000020A8F80200BDE8F78F2DE9FE4F0400F5
:1007B0000020002100220025002600270294DFF8F7
:1007C0000481CDF804805FF000094846C0B21028CB
:1007D0000AD202984946C9B2405C01994A46D2B24F
:1007E000885419F10109F0E70C21019800F0D8FFB5
:1007F0008246D8F80C00ADF800005046BDF8001055
:1008000080B288420CD010250026C3463200290051
:10081000584600F051FB4FF6FF70A8F8000001E0C9
:10082000012007003800C0B2BDE8FE8F2DE9F04777
:1008300004000025002600275FF00108DFF884A0EF
:10084000D1460020CAF80C000C21484600F0A8FF51
:10085000CAF80C0000F0F9F9200000F006FA824610
:100860005046C0B204281CD1002005002800C0B2A8
:10087000092810D25046C0B204280CD12800C0B2BA
:1008800039F810102800C0B214EB400000F057FAFD
:1008900082466D1CEAE72800C0B2082801D3012077
:1008A000060000F0DBF93000C0B2BDE8F0870000C0
:1008B0000002300098220008A022000800F800087A
:1008C00000F000083C240020542400206024002074
:1008D0000000FE2F68240020642400206C240020E7
:1008E00000400008003801402009002014000020CA
:1008F00000500008902200083422000880500008B0
:10090000004200082C120020381B00205824002030
:100910005C24002058210008DFF8C012086850F05D
:1009200001000860DFF8B8221368DFF8B80203405E
:1009300013600B68DFF8B00203400B60086830F406
:1009400080200860106830F4FE0010605FF41F0023
:10095000DFF8981208607047DFF880120A6832F4F6
:1009600080320A600A6832F480220A600200B2F51E
:10097000803F03D0B2F5802F05D009E00A6852F419
:1009800080320A6004E00A6852F4A0220A60FFE79D
:10099000704738B50020009000240025312000F079
:1009A000FAF805000098401C009000984FF6FF717F
:1009B000884203D02800C0B20028EFD0312000F0D8
:1009C000EAF8002801D0012000E00020C0B232BDCA
:1009D00030B40023824D2C6834F47C1451EA0002B8
:1009E00014432C6030BC70470100C9B2804A1160CA
:1009F000704700217A4B1A689208920002431A60ED
:100A000070477748006810F00C0070470021744B65
:100A10001A6832F0F00202431A6070470021704BEE
:100A20001A6832F4E06202431A60704700216C4B8E
:100A30001A6832F4605252EAC0021A60704700210C
:100A4000674B1A6832F4404202431A6070472DE93E
:100A5000F04F01000022002500200026604FD7F84B
:100A600000C01CF00C0C6346002B04D0042B05D0F6
:100A7000082B06D023E0604A0A6022E05F4A0A6041
:100A80001FE03A6812F470123B6813F480331800C8
:100A9000920C921C1500002804D1594A02FB05F261
:100AA0000A600BE03A68920304D5564A02FB05F24D
:100AB0000A6003E0514A02FB05F20A6001E04E4A77
:100AC0000A603C6814F0F0042409DFF83C9119F83E
:100AD00004E00A6832FA0EF24A603B6813F4E063FD
:100AE0001B0A19F803804A6832FA08F28A603A68E9
:100AF00012F46052D20A19F80290D1F804A03AFA1E
:100B000009FAC1F80CA03F6817F44047BF0BDFF8A3
:100B1000FCA01AF807A0D1F80CB0BBFBFAFBC1F897
:100B200010B0BDE8F08F0A00D2B2002A04D0384AD3
:100B300013680343136003E0354A1368834313606B
:100B400070470A00D2B2002A04D0324A1368034325
:100B5000136003E02F4A13688343136070470A0051
:100B6000D2B2002A04D02C4A13680343136003E076
:100B7000294A13688343136070470A00D2B2002ADF
:100B800004D0264A13680343136003E0234A136822
:100B900083431360704730B4010000200023002518
:100BA0000A00D2B25209D2B2012A02D10B4804681B
:100BB00006E0022A02D10F48046801E018480468E0
:100BC0000B00DBB213F01F032000D840C00701D593
:100BD000012000E00020C0B230BC7047001002408D
:100BE000041002400000FFF8FFFFF6FE081002406C
:100BF000600042422010024000127A00001BB70041
:100C000000093D00808D5B000000002010000020E6
:100C1000181002401C1002400C100240101002403C
:100C2000241002400021DFF88C311A6812F03802DB
:100C300002431A607047DFF87C110A6832F0100234
:100C40000A600A6802430A607047DFF86C01DFF847
:100C50006C110160DFF8681101607047DFF8640112
:100C6000016851F080010160704770B504000426EE
:100C70005FF0FF3000F0ACF805002800C0B2042897
:100C80001AD1DFF84061306850F002003060DFF8C0
:100C900038010460306850F0400030605FF0FF3091
:100CA00000F096F805002800C0B2052804D031688D
:100CB00041F6FD70014031602800C0B270BDF8B54A
:100CC00004000D000427002000905FF0FF3000F0CA
:100CD0007FF806003000C0B204282DD1DFF8E470A0
:100CE000386850F00100386025805FF0FF3000F078
:100CF0006FF806003000C0B2042814D1A01C009088
:100D00002800000C009908805FF0FF3000F060F8C8
:100D100006003000C0B205280ED0396841F6FE70DA
:100D20000140396008E03000C0B2052804D03968BD
:100D300041F6FE70014039603000C0B2F2BDF8B536
:100D400004000D0004275FF0FF3000F041F80600BA
:100D50003000C0B2042814D1DFF86870386850F051
:100D60000100386025805FF0FF3000F031F80600A8
:100D70003000C0B2052804D0396841F6FE70014049
:100D800039603000C0B2F2BD042110480268D207B9
:100D900001D501200AE00268520701D5022005E0D2
:100DA0000068C00601D5032000E00420C0B27047EF
:100DB000000000000020024004200240230167459B
:100DC000AB89EFCD10200240142002400C200240DD
:100DD00070B504000425FFF7D7FF06003000C0B24D
:100DE000012806D1002C04D0FFF7CEFF0600641EB8
:100DF000F4E7002C01D1052006003000C0B270BD20
:100E000025490143254A11607047F0B400220023B0
:100E10000F24C17800291FD02049096811F4E0612E
:100E2000D1F5E061090AD1F104052B00CC404578E9
:100E30009D408678264035432D012A00184D0678BE
:100E4000AA550125067816F01F06B540154E0778FD
:100E50007F1146F8275009E00121057815F01F059C
:100E6000A940114D0678761145F82610F0BC704760
:100E70000E4A0A4002430E4B1A607047042805D1FF
:100E80000C490A6852F004020A6004E009490A6841
:100E900032F004020A6070470000FA050CED00E031
:100EA00000E400E000E100E080E100E080FFFF1FDF
:100EB00008ED00E010E000E062F30F2262F31F4251
:100EC000401810F0030308D0C91A1FD3DB0748BF2E
:100ED00000F8012D28BF20F8022D130030B414466D
:100EE0001546103928BF20E93C00FAD8490728BF29
:100EF00020E90C0048BF40F8042D890028BF20F8E5
:100F0000022D48BF00F8012D30BC7047C91818BF2A
:100F100000F8012DCB0728BF00F8012D704730B431
:100F2000002513E050F8042BD30744BFA9F10103B7
:100F30009A18091F042942F8045BFAD213468C0759
:100F400044BF15809B1CC90748BF1D7050F8041B87
:100F50000029E7D130BC7047F0B5002200230024FF
:100F600000250026002791F803C01CF00F0C91F813
:100F700003E05FEACE6E02D58A7852EA0C0C0A785A
:100F800012062AD00268160000221400082C23D270
:100F90005FF0010E1EFA04F215000A882A401300C1
:100FA000AB4217D1A20015000F22AA401700BE4382
:100FB0001CFA05F21643CA78282A04D11EFA04FE48
:100FC000C0F814E006E0CA78482A03D11EFA04FEED
:100FD000C0F810E0641CD9E706600A88B2F5807F8B
:100FE0002EDB4268160000221400082C27D25FF086
:100FF000010E14F108021EFA02F215000A882A40B6
:101000001300AB4219D1A20015000F22AA4017000D
:10101000BE431CFA05F21643CA78282A04D114F1FB
:1010200008021EFA02F24261CA78482A05D114F178
:1010300008021EFA02FEC0F810E0641CD5E7466004
:10104000F0BDF0B40022002300250027002802D5BF
:101050001D4C246801E01D4C2468C0F3034586B292
:1010600010F4401CBCF5401F07D134F07064174ADF
:10107000176837F07067176011E0C20206D50322C7
:10108000AA4013009C4354F0706408E00200520D23
:10109000D2B2120116FA02F2944354F070640A00BC
:1010A000D2B2002A06D00200520DD2B2120116FAB4
:1010B00002F21443002802D5034A146001E0034AF7
:1010C0001460F0BC704700001C00014004000140A7
:1010D00030B585B00400042100226D462800FFF7DA
:1010E000EBFE1021002201AD2800FFF7E5FE384D90
:1010F000280000F0C7F837488188ADF800100321B8
:101100008DF8021018218DF8031069460068FFF76A
:1011100023FF31488188ADF8001004218DF80310B9
:1011200069460068FFF718FF01940020ADF8080039
:101130000020ADF80A000020ADF80C000020ADF84A
:1011400010000C20ADF80E0001A9280000F0E2F814
:101150000121280000F054F905B030BD80B52520EC
:101160008DF8000001208DF8010000208DF80200AC
:1011700001208DF803006846FFF747FE01BD70B5FA
:1011800004000D00124E40F2A551300000F0CAF9E3
:101190002200D2B240F22551300000F040F92A007E
:1011A000D2B240F22661300000F039F970BD10B4BF
:1011B000002200238B4208D2054A12881206FBD572
:1011C000C25C064C22805B1CF4E710BC7047000038
:1011D00000380140A8220008B0220008043801406D
:1011E00010B4020052B2002A05D40A011D4B0400BB
:1011F00064B21A5508E00A011B4B040064B214F0F3
:101200000F04234403F8042C10BC704710B50400ED
:10121000601EB0F1807F01D301200EE0601E1349F3
:1012200008600F215FF0FF30FFF7DAFF0020104960
:10123000086007200F490860002010BD80B5042019
:10124000FFF71CFE0C48FFF7E1FF00200B49086088
:1012500000200B4908600F215FF0FF30FFF7C0FF4F
:1012600001BD000000E400E018ED00E014E000E043
:1012700018E000E010E000E0382C05006C240020AD
:101280007024002010B50400584884420AD101217E
:101290004FF48040FFF763FC00214FF48040FFF7DC
:1012A0005EFC36E0524884420AD101215FF40030EE
:1012B000FFF763FC00215FF40030FFF75EFC28E0DD
:1012C0004C4884420AD101215FF48020FFF755FC8D
:1012D00000215FF48020FFF750FC1AE0464884426A
:1012E0000AD101215FF40020FFF747FC00215FF4E1
:1012F0000020FFF742FC0CE04048844209D1012164
:101300005FF48010FFF739FC00215FF48010FFF7D5
:1013100034FC10BD2DE9F84F86B004000D00002606
:1013200000275FF000085FF000095FF0000AA8895D
:101330000028A346218A4CF6FF700140E88801434B
:10134000009100982082A1894EF6F3100140AA88EE
:101350002889024368890243114300910098A081C3
:10136000A18A4FF6FF400140A889014300910098EF
:10137000A08201A8FFF76BFB1C48834501D10499AB
:1013800000E00399A089000407D5192000FB01F0B3
:101390002A685200B0FBF2F206E0192000FB01F0CF
:1013A0002A689200B0FBF2F26420B2FBF0F636013C
:1013B00033001B09642000FB1323A089000408D517
:1013C000D80032306427B0FBF7F010F00700064376
:1013D00007E0180132306427B0FBF7F010F00F007F
:1013E0000643268107B0BDE8F08F000000380140B9
:1013F0000044004000480040004C004000500040C5
:101400000A00D2B2002A04D0828952F400528281AA
:1014100004E083894DF6FF721340838170472DE904
:10142000F0410023002500275FF0000E0C0040F67D
:101430006A16A4B2B44280460C00E4B26409E4B275
:101440000E00B6B216F01F065FF0010C1CFA06FC87
:10145000012C02D118F10C0806E0022C02D118F17F
:10146000100801E018F114081300DBB2002B06D0BD
:10147000D8F800305CEA0303C8F8003005E0D8F87B
:10148000003033EA0C03C8F80030BDE8F0810200F8
:101490000023080080B2B0F5007F1088084201D018
:1014A000012000E00020C0B270470A0092B292050D
:1014B0000A0092B2D24302807047F0B404000027C1
:1014C0000020002200260B0040F66A159BB2AB42BA
:1014D0000D00EDB26D09EDB20B009BB213F01F03CE
:1014E0005FF0010C1CFA03F3012D02D1A089034027
:1014F00006E0022D02D1208A034001E0A08A0340C9
:101500000A0092B2120A92B21CFA02F22088024039
:10151000002B03D0002A01D0012000E00020C0B23F
:10152000F0BC704770B4002200240B0040F66A152E
:101530009BB2AB420B009BB21B0A01259D402E00C3
:10154000B6B2F643068070BC70470A78002A06D00F
:10155000812A0DD0822A1ED0842A3DD069E0020063
:10156000D2B27E2A03D181220A707E228A7160E083
:101570000200D2B2552A04D182220A705522CA71C1
:1015800008E00200D2B27E2A02D181220A7001E074
:1015900000220A704DE00200D2B2082A0DDB0200E0
:1015A000D2B2F12A09DA84220A700200D2B2D21C25
:1015B0008A80087203224A800DE00200D2B2002A1B
:1015C00007D184220A7014228A80087203224A807A
:1015D00001E000220A702CE00A7A002A1DD14A8814
:1015E0000E2A05D18B880200D2B2D3188B8014E06A
:1015F0004A880F2A06D18A880300DBB212EB032245
:101600008A800AE04A88102A02D18A888A8004E007
:101610004A88112A01D18A888A804A88531C4B80C3
:1016200092B20A4490714A888B889A4201D306226A
:101630000A700022C1F808297047010000200A78CA
:10164000052A08D14A88092A02DB0122100007E096
:1016500000220A7004E00A78062A01D10122100053
:10166000C0B270470300002013F0030F09D0521ED0
:1016700022BF13F8010B11F801CBB0EB0C00F3D033
:10168000704711F0030F14D1121F22BF53F8040B3F
:1016900051F804CB6045F7D0121D0AD200BA9CFA6B
:1016A0008CFCB0EB0C0038BF6FF0000088BF01204D
:1016B0007047521E22BF13F8010B11F801CBB0EB9B
:1016C0000C00F6D0521C08BF1046704762B38B075F
:1016D00008D0521E11F8013B00F8013B00F02480B5
:1016E0008B07F6D1830740F0208000BF103A07D364
:1016F00030B4B1E83810103AA0E83810F9D230BC54
:10170000530724BFB1E80810A0E8081044BF51F8FF
:10171000043B40F8043BD20724BF31F8022B20F8E9
:10172000022B44BF0B7803707047121F17D35B0066
:1017300009D151F8043B20F8023B1B0C121F20F882
:10174000023BF6D20BE051F8043B00F8013B1B0AC8
:1017500020F8023B1B0C121F00F8013BF3D238BFEC
:10176000121D521E24BF11F8013B00F8013BF8D8AE
:10177000704730B40EE00268436802440830DC076A
:1017800044BFA9F10104E31852F8045B43F8045B79
:10179000091FF9D150F8041B0029ECD130BC704767
:1017A00070B403000022002400264FF6FF700025CD
:1017B0008D4214D25A5D504000221600082E0CD2E1
:1017C000C20706D580B2020048F2084090EA5200F3
:1017D00001E080B24008761CF0E76D1CE8E780B2BB
:1017E000C04380B270BC704770B403000022002672
:1017F00000244FF6FF7000252A000E0092B2B6B208
:10180000B24218D22A0092B29A5C504000221400D0
:10181000220092B2082A0CDAC20706D580B2020072
:1018200048F2084090EA520001E080B24008641C8F
:10183000EEE76D1CE0E780B2C04380B270BC704739
:101840002DE9F74F82B0070098460E9C0F9D0026A9
:101850000020ADF804007E20B855761C5520B85500
:10186000761C18F10B00B855761C0120B855761C73
:101870000020B855761C0020B855761C0020B855BD
:10188000761C1F20B855761C9DF80C00B855761CA8
:101890000020B855761C2000C0B200280CD1C146EB
:1018A0005FFA89F90498009007EB060A4A46009906
:1018B0005046FFF70BFF0BE0C1465FFA89F95FF076
:1018C000000A07EB060B524649465846FFF7F4FA62
:1018D0004046C0B28619BC55761CBD55761CB878FA
:1018E000411E89B2B81CFFF77FFF0100B955761C75
:1018F000080080B2000AB855761C300005B0BDE87B
:10190000F08F70B500260024DB4D7E2005EB06012C
:101910000871761C552005EB06010871761C09201C
:1019200005EB06010871761C012005EB0601087124
:10193000761C002005EB06010871761C002005EBE3
:1019400006010871761C002005EB06010871761C63
:101950001F2005EB06010871761C012005EB06012E
:101960000871761C002005EB06010871761CA87929
:10197000411E89B2A81DFFF737FF010005EB0600E5
:101980000171761C080080B2000A05EB0602107196
:10199000761C300070BD70B500260024B64D7E2048
:1019A00005EB06010871761C552005EB0601087150
:1019B000761C092005EB06010871761C012005EB59
:1019C00006010871761C002005EB06010871761CE3
:1019D000002005EB06010871761C002005EB0601CE
:1019E0000871761C1F2005EB06010871761C032088
:1019F00005EB06010871761C002005EB0601087155
:101A0000761CA879411E89B2A81DFFF7EDFE0100E2
:101A100005EB06000171761C080080B2000A05EB98
:101A200006021071761C300070BD70B500260024CF
:101A3000914D7E2005EB06010871761C552005EBC3
:101A400006010871761C092005EB06010871761C59
:101A5000012005EB06010871761C002005EB06014C
:101A60000871761C002005EB06010871761C002029
:101A700005EB06010871761C1F2005EB06010871B5
:101A8000761C042005EB06010871761C002005EB8E
:101A900006010871761CA879411E89B2A81DFFF7BE
:101AA000A3FE010005EB06000171761C080080B260
:101AB000000A05EB06021071761C300070BD2DE99E
:101AC000F84304000D00160000275FF00008DFF85F
:101AD000A8917E2009EB070108717F1C552009EBB6
:101AE000070108717F1C002009EB070108717F1CAA
:101AF000012009EB070108717F1C002009EB070199
:101B000008717F1C002009EB070108717F1C002071
:101B100009EB070108717F1C1F2009EB0701087101
:101B20007F1C022009EB070108717F1C002009EBD4
:101B3000070108717F1C09EB070004717F1C09EB8A
:101B4000070005717F1C2800000A09EB07010871D6
:101B50007F1C2800000C09EB070108717F1C28007E
:101B6000000E09EB070108717F1C09EB07000671E5
:101B70007F1C3000000A09EB070108717F1C300050
:101B8000000C09EB070108717F1C3000000E09EB07
:101B9000070108717F1C2000C0B2002807D0320066
:101BA00009EB0700011D280000F099F8F71938002B
:101BB000811E89B219F10600FFF716FE010009EB3C
:101BC000070001717F1C080080B2000A09EB0702C0
:101BD00010717F1C3800BDE8F283F8B504000027BF
:101BE0000025254E7E2006EB070108717F1C55203D
:101BF00006EB070108717F1C0A2006EB070108713C
:101C00007F1C012006EB070108717F1C002006EBFA
:101C1000070108717F1C002006EB070108717F1C7B
:101C2000002006EB070108717F1C1F2006EB07014F
:101C300008717F1C052006EB070108717F1C00203E
:101C400006EB070108717F1C06EB070004717F1C7F
:101C5000B079411E89B2B01DFFF7C6FD010006EB49
:101C6000070001717F1C080080B2000A06EB070222
:101C700010717F1C3800F2BD381B002010B5040025
:101C80002000FEF7F2FF042801D1012000E000202F
:101C900010BD2DE9F04704000D00160000200021C2
:101CA00001275FF00108A9465FF0000AB24512D291
:101CB0005046800859F820101AEB0400FEF7FFFF89
:101CC00007003800C0B2042802D00020804602E09D
:101CD0001AF1040AEAE74046C0B2BDE8F0872DE9F0
:101CE000F84F04000D00160000275FF000085FF0B9
:101CF00000095FF0010A0094AB46FEF7A6FF002141
:101D0000B1EB960F06D2009850F821004BF8210055
:101D1000491CF5E75046C0B2BDE8F28F0100C9B2D8
:101D20001A4A1180184909880906FBD570474FF4F3
:101D300060514843401C0100481E0029FBD17047F8
:101D40002DE9F04104000D0000270E4EB0883168E7
:101D500008610120FFF7EBFF5FF00008280080B268
:101D6000804506D214F80800FFF7D8FF18F10108E3
:101D7000F4E70120FFF7DBFFB08831684861BDE878
:101D8000F081000088220008004400400444004024
:101D900038B50024074D0020E88006212800FFF711
:101DA000FFFCE8802A00082141F6F87000F05AF89C
:101DB000C0B232BD4C2400202DE9F04104000D00DA
:101DC000160000275FF00108280080B2002842D0EA
:101DD00000F0ACF8002801D1002080464046C0B297
:101DE000002808D0A02000F006F900F0E3F8002851
:101DF00001D1002080464046C0B2002808D0200013
:101E000080B2000AC0B200F0F6F800F0D3F88046C5
:101E10004046C0B2002806D02000C0B200F0EBF867
:101E200000F0C8F88046002007003800290080B282
:101E300089B288420DD24046C0B2002807D038008F
:101E400080B2305C00F0D7F800F0B4F880467F1C18
:101E5000EBE700F097F8052000F05FF84046C0B2CD
:101E6000BDE8F0812DE9F04704000D0016000027C1
:101E70005FF000085FF0000A200010F01F0F1BD079
:101E800014F01F00D0F1200007002800390080B2B4
:101E900089B2884200D22F00404680B206EB000291
:101EA000390089B218EB040080B2FFF785FF814644
:101EB000ED1B17EB080801E05FF001094846C0B2CE
:101EC00000281FD0280080B200281BD02020070047
:101ED0002800390080B289B2884200D22F004046E3
:101EE00080B206EB0002390089B218EB040080B220
:101EF000FFF762FF8146ED1B17EB08084846C0B2AA
:101F00000028DFD14846C0B2BDE8F0870020C821D4
:101F10000800411E0028FBD170474FF46051484330
:101F2000401C0100481E0029FBD1704710B5444CED
:101F3000A088216808614348818800680161FFF733
:101F4000E5FF20688068002801D1012000E0002022
:101F5000217911F00101084201D0002011E0A08890
:101F600021684861FFF7D2FF20688068A188084295
:101F700001D0002005E0A08821684861FFF7C6FF76
:101F8000012010BD38B52F4CA08821684861FFF7AB
:101F9000BDFF2B4DA88829684861FFF7B7FFA088CF
:101FA00021680861FFF7B2FFA88829680861FFF778
:101FB000ADFF31BD38B5234CA08821684861FFF7DB
:101FC000A5FF1F4DA88829680861FFF79FFFA0881B
:101FD00021680861FFF79AFF28688068A98808428D
:101FE00004D0A08821684861002003E0A08821680F
:101FF0004861012032BD70B5040008252800451E47
:10200000C0B2002817D00F4EB08831684861FFF782
:102010007DFF200604D50A4881880068016103E03D
:1020200007488188006841616400B08831680861B0
:10203000FFF76CFFE2E7034881880068416170BDEB
:1020400078220008802200087047FEE7FEE7FEE7DE
:10205000FEE770477047704724480168491C0160DB
:1020600000681521B0FBF1F201FB1200002804D139
:102070001F48016851F0020101601E4801780906FD
:102080000CD5D0F80819491DC0F80819D0F808195E
:1020900041F28832914201D305210170704770B539
:1020A000154C40F2255529002000FFF706FA0028BC
:1020B0000CD0002629002000FFF734FA0F480588CD
:1020C0000C492800C0B2FFF740FA0AE04FF45871FB
:1020D0002000FFF7F2F9002803D008480088C00567
:1020E000C00D208810F47C40208070BD6C2400203E
:1020F0005424002020090020003801400438014009
:102100007047000080B50E49086850F00100086073
:102110000C4A13680C48034013600B680B480340DB
:102120000B60086830F480200860106830F4FE000E
:1021300010605FF41F000649086000F00BF801BD55
:1021400000100240041002400000FFF8FFFFF6FEFE
:102150000810024070470000426F6F742056332E03
:10216000305F3230303330363030204744333246FF
:10217000317878000000000000000000000000003E
:1021800000000000000000000000000010B507493A
:1021900079441831064C7C44163404E00A68081D62
:1021A000114488470146A142F8D110BD0800000043
:1021B000280000006BEDFFFF6024000014000020E9
:1021C00000000000AFF5FFFF140000007C000000DD
:1021D000000000200000000000F00DF8002801D0F1
:1021E000FFF7D4FFAFF300800020AFF3008000F0D2
:1021F00004F800F00CF80120704780B5FEF717F8DE
:10220000FEF78DF8FEF7CBF8FEF7ECF8F8E700F0F4
:1022100001B800000746384600F002F8FBE700006E
:1022200080B5AFF30080024A11001820ABBEFBE777
:1022300026000200523030312D5343482D4D422D9F
:10224000323530313030000000000000010203045C
:102250000102030406070809020406080148804732
:1022600001480047052100086D220008AFF30080F7
:10227000AFF30080FFF7B0FF000C014080000000CA
:10228000000C014040000000000801400010000068
:102290005230303031200000000C0140200000009E
:1022A000000C014000020000000801400002000094
:1022B0000008014000040000FFF7FEBFFFF7FEBF6B
:1022C000FFF7FEBFFFF7FEBFFFF7FEBFFFF7FEBF42
:1022D000FFF7FEBFFFF7FEBFFFF7FEBFFFF7FEBF32
:1022E000FFF7FEBFFFF7FEBFFFF7FEBFFFF7FEBF22
:1022F000FFF7FEBFFFF7FEBFFFF7FEBFFFF7FEBF12
:10230000FFF7FEBFFFF7FEBFFFF7FEBFFFF7FEBF01
:10231000FFF7FEBFFFF7FEBFFFF7FEBFFFF7FEBFF1
:10232000FFF7FEBFFFF7FEBFFFF7FEBFFFF7FEBFE1
:10233000FFF7FEBFFFF7FEBFFFF7FEBFFFF7FEBFD1
:10234000FFF7FEBFFFF7FEBFFFF7FEBFFFF7FEBFC1
:10235000FFF7FEBFFFF7FEBFFFF7FEBFFFF7FEBFB1
:10236000FFF7FEBFFFF7FEBFFFF7FEBFFFF7FEBFA1
:10237000FFF7FEBFFFF7FEBFFFF7FEBFFFF7FEBF91
:10238000FFF7FEBFFFF7FEBFFFF7FEBFFFF7FEBF81
:10239000FFF7FEBFFFF7FEBFFFF7FEBFFFF7FEBF71
:040000050800226D60
:00000001FF
